:020000040800F2
:100000006029002039030008B3420008573B00086C
:10001000B1420008AD080008E14D000800000000F2
:10002000000000000000000000000000790200084D
:100030005D09000800000000D5020008C542000864
:100040005303000853030008530300085303000838
:100050005303000853030008530300085303000828
:10006000530300085303000853030008B1080008B5
:10007000BD080008C9080008D5080008E108000804
:10008000ED080008000000005303000853030008B7
:1000900053030008530300085303000853030008E8
:1000A0005303000853030008554300085303000896
:1000B00053030008530300085303000853030008C8
:1000C00053030008530300085303000853030008B8
:1000D000530300085303000853030008D54D0008DC
:1000E0005303000853030008530300085303000898
:1000F00053030008530300085303000800000000E6
:100100000000000053030008000000005303000833
:100110005303000800000000814300088D430008DD
:100120005303000853030008530300085303000857
:100130005303000800000000000000005303000803
:1001400053030008530300080000000000000000F3
:10015000000000000000000000000000000000009F
:100160000000000000000000000000005303000831
:100170005303000800000000000000000000000021
:100180000000000053030008000000000000000011
:10019000000000000000000000000000000000005F
:1001A0000000000000000000530300085303000893
:1001B0005303000853030008530300080000000025
:1001C00000000000530300080000000000000000D1
:1001D000530300085303000800F002F800F03CF855
:1001E0000AA090E8000C82448344AAF10107DA4592
:1001F00001D100F031F8AFF2090EBAE80F0013F0A8
:10020000010F18BFFB1A43F001031847CC6E000022
:10021000EC6E0000103A24BF78C878C1FAD85207B3
:1002200024BF30C830C144BF04680C607047000070
:100230000023002400250026103A28BF78C1FBD8EF
:10024000520728BF30C148BF0B6070471FB506F08A
:10025000EBFA1FBD10B510BD00F0D4F91146FFF741
:10026000F5FF04F005FE00F0F2F903B4FFF7F2FF2A
:1002700003BC00F0F5F900002C4B19680868B0E8E1
:10028000F04F80F30988BFF36F8F4FF0000080F3C9
:10029000118870470000000008480068006880F37B
:1002A00008884FF0000080F3148862B661B6BFF38F
:1002B0004F8FBFF36F8F00DF00BF00BF08ED00E07E
:1002C000DFF80C00016841F470010160704700BF65
:1002D00088ED00E0EFF30980BFF36F8F134B1A68CE
:1002E0001EF0100F08BF20ED108A20E9F04F1060BB
:1002F00009B44FF0500080F31188BFF34F8FBFF364
:100300006F8F05F063FD4FF0000080F3118809BC8A
:1003100019680868B0E8F04F1EF0100F08BFB0EC85
:10032000108A80F30988BFF36F8F70473000002078
:10033000EFF30580704700000948804709480047EF
:10034000FEE7FEE7FEE7FEE7FEE7FEE7FEE7FEE785
:10035000FEE7FEE704480549054A064B70470000E2
:1003600045430008D90100086023002060290020CF
:10037000602500206025002053EA020C00F069800F
:100380002DE9F04B4FF00006002B1FBFB3FA83F5A9
:1003900003FA05F424FA05F65E4012BF1643B2FADA
:1003A00082F502FA05F4C5F120051EBF22FA05FC0C
:1003B00044EA0C04203556EA044C4FEA144418BFB2
:1003C000641C4FF000084FF00009904271EB030CE1
:1003D00039D3002919BFB1FA81F701FA07F6B0FA4B
:1003E00080F700FA07F6C7F120071EBF20FA07FCC6
:1003F00046EA0C062037B6FBF4FCA7EB0507103FD6
:1004000007F01F0BCBF120060CFA0BFB2CFA06F6BB
:1004100044BFB3460026202FA4BF5E464FF0000B1A
:100420005BEA060C08BF4FF0010B19EB0B09ABFBA5
:10043000027C48EB0608C01B06FB02CC0BFB03CC7E
:1004400071EB0C01C1E70B46024641464846BDE848
:10045000F08B13B54FF000004FF00001AFF30080B8
:10046000BDE81C407047032A40F2308010F0030CB6
:1004700000F0158011F8013BBCF1020F624498BFF7
:1004800011F801CB00F8013B38BF11F8013BA2F194
:10049000040298BF00F801CB38BF00F8013B11F00F
:1004A000030300F05780083AC0F0088051F8043B7D
:1004B000083A51F804CBA0E80810F5E7121D5CBF1C
:1004C00051F8043B40F8043BAFF30080D20724BF4F
:1004D00011F8013B11F801CB48BF11F8012B24BFE3
:1004E00000F8013B00F801CB48BF00F8012B704732
:1004F00002F0FF0343EA032242EA024200F05EB840
:100500004FF0000200B5134694469646203922BFAC
:10051000A0E80C50A0E80C50B1F12001BFF4F7AFF7
:10052000090728BFA0E80C5048BF0CC05DF804EBD9
:10053000890028BF40F8042B08BF704748BF20F847
:10054000022B11F0804F18BF00F8012B7047704745
:100550007047704710B5203AC0F00B80B1E81850D2
:10056000203AA0E81850B1E81850A0E81850BFF49D
:10057000F5AF5FEA027C24BFB1E81850A0E818503C
:1005800044BF18C918C0BDE810405FEA827C24BF90
:1005900051F8043B40F8043B08BF7047D20728BF1E
:1005A00031F8023B48BF11F8012B28BF20F8023B6D
:1005B00048BF00F8012B70474FF000020429C0F03B
:1005C000128010F0030C3FF49DAFCCF1040CBCF191
:1005D000020F18BF00F8012BA8BF20F8022BA1EBD7
:1005E0000C01FFF78FBF5FEAC17C24BF00F8012B2D
:1005F00000F8012B48BF00F8012B704700487047F6
:10060000002300207546FFF7F9FFAE460500694656
:10061000534620F00700854618B020B5FFF79AFE34
:10062000BDE820404FF000064FF000074FF00008F3
:100630004FF0000B21F00701AC46ACE8C009ACE874
:10064000C009ACE8C009ACE8C0098D46704710B5D8
:100650000446AFF300802046BDE81040FFF705BE1A
:1006600001491820ABBEFEE72600020070470000DB
:1006700080B59FED441A9FED443A46F6D40C9FEDA9
:10068000437AF0EE087AB5EEC00AC0F6000CF1EE3F
:1006900010FA20EE011AB0EEC11ABDEEC12AB8EE72
:1006A000C22A31EE421A21EE031ABDEEC12A12EE21
:1006B000102A02F180036FF35F226FF35F230CEBCC
:1006C000820E00EE902A0CEB83039EED013A9EED24
:1006D000002AF8EE600A93ED004A93ED015A31EEDC
:1006E000601AB1EE436A73EE421A72EE024A74EE79
:1006F000052A36EE426A74EE043A75EE445A33EE39
:10070000243A71EEA16A61EEA71A35EE235A62EE21
:10071000872A26EE076A75EEA53A23EE073A72EEAF
:10072000E60A25EE075A36EE636A65EEA72A61EE01
:10073000200A31EEC55A32EE833A21EE066A33EED4
:10074000063A35EE205A24EE076A22EE077A21EEA9
:10075000055A21EE033A36EE055A33EE473A21EEBA
:10076000055A21EE031A32EE052A34EE011AB1EED3
:10077000423A81ED001AB8BFB0EE432A80ED002A5C
:1007800080BD00BF610B363B00000044DB0F493CDD
:1007900070B50446006881688268C1F3400112F0B8
:1007A000010F28D039BB816801F00D01012914D156
:1007B0008168124A1140891C816021680320086009
:1007C00001F022FA054612E001F01EFA401B022851
:1007D0000DD920688068C00709D0E06D40F0100096
:1007E000E065206E40F001002066012070BD2068A9
:1007F0008068C007E8D1002070BD0000C0FFFF7F07
:10080000F8B50446002000902068816811F0010FBF
:1008100041D18168214A11422ED18168D5432940B6
:10082000491C81601E48806800F0E07000020DD510
:100830001C481D490068B0FBF1F0401C00EB400073
:10084000800000E0401E00900028FBD101F0DCF9A0
:1008500006461BE0816811F0010F03D18168294031
:10086000491C816001F0D0F9801B02280ED9206854
:100870000068C043C00709D0E06D40F01000E0659B
:10088000206E40F0010020660120F8BD206801685C
:10089000C943C907DED10020F8BD00003F00008039
:1008A000000300502C000020400D0300FEE7000074
:1008B000014800F044BE000000040020014800F0A0
:1008C0003EBE000060040020014800F038BE000079
:1008D00020090020014800F032BE000080090020FD
:1008E000014800F02CBE00009C060020014800F0EA
:1008F00026BE0000FC0600200D4902688A4201D293
:100900000C4901E00B492031D2B21423083AB2FB62
:10091000F3F2436C02F01F0223F0030319448164D5
:1009200004498031C1640121914001657047000094
:1009300008040240000802400179074A02EB8102E4
:100940004265054A4432491E826501F01F020121B9
:100950009140C16570470000FC080240704772B6C4
:10096000FEE7000070B5044601F04EF90546206828
:10097000016941F4803101614FF4FA760BE000BF68
:1009800001F042F9401BB04205D9606B40F0800095
:100990006063012070BD20680069C003F0D40020AE
:1009A000606370BD10B5044600F005F82046BDE850
:1009B000104000F008B80021C1604161018220218F
:1009C00080F833107047002181610162818320210A
:1009D00080F8321070470000F8B5002604460096F3
:1009E00090F858000D4601280BD0012084F85800DB
:1009F0002046FFF7CDFE0100E06D04D040F010006E
:100A00002AE00220F8BD20F4885040F00200E065A2
:100A100020688268134B1A4005F080431A4342F065
:100A200000428260104A20680EE0009B5B1C00932D
:100A3000934209D3E06D20F0020040F01000E06521
:100A400084F858600120F8BD8368DB0FEDD1E06DBC
:100A500020F0020040F00100E06584F8586008468C
:100A6000F8BD0000C0FFFF3F02DE04002DE9F041A9
:100A700004463548806800F01F05206803F09AF8A6
:100A800008BB2168C868C96C00F0004011F4C07F41
:100A900000D190B194F85800012814D0012084F8B6
:100AA00058002046FFF7ACFE02004FF000030CD0C8
:100AB00084F858301046BDE8F081E06D40F0200029
:100AC000E0650120F7E70220F5E7E06DC00504D5F9
:100AD000206E20F00800206600E02366E06D42F200
:100AE0000101884340F48050E065184F21684FF0C1
:100AF000A046B94201D1304600E00846884200D005
:100B00001DB9E06D20F48010E0656020086084F875
:100B100058302068B84200D00646864209D045B118
:100B2000062D06D0072D04D0E06D40F48010E0655E
:100B3000C0E7C16811F0007FBCD18168044B194047
:100B400041F008018160B5E700030050000100504A
:100B5000C0FFFF7F2DE9F047044690F858009CB095
:100B60000E464FF00009012815D0012084F85800E6
:100B700000251795189520684FF0A04840450ED1E4
:100B8000284F0097384603F01DF88246206803F08E
:100B900019F860B10EE002201CB0BDE8F087E06DEE
:100BA00040F02000E06584F858500120F4E7BAF1E5
:100BB000000F09D0E06D40F02000E0654FF0010922
:100BC00084F858504846E7E71748326840F61F71E6
:100BD000002A826822F4604216D094F8383042EA43
:100BE000433273681A438260D8F80820BB6802F069
:100BF000010203F001031A43E2D1B36832681A43D9
:100C000083688B431A430BE08260D8F80820BB68E6
:100C100002F0010203F001031A43D1D182688A4332
:100C20008260CDE700010050000300502DE9F84F2D
:100C300000270446009790F85800DFF8E0930D462F
:100C4000B846012811D0012684F85860206802F0C7
:100C5000B5FF60B1E06D40F02000E0655FF0010796
:100C600084F858803846BDE8F88F0220FBE7D5E9C4
:100C700000210C23206803EA91131844036B01F050
:100C80001F014FF01F0C0CFA01FCC2F3846223EA2F
:100C90000C038A4013430363206802F08FFF8246EF
:100CA000206802F083FF5AEA00003CD1AA68296854
:100CB0002068B2F1004F37D002F088FF2068416908
:100CC00021F00041416120686969C268C2F3C10234
:100CD000520091402A69042A31D000EB82002B682F
:100CE000026EDFF83CC303F0F84302EA0C020B4348
:100CF0001A4342F00041016620682A69A96900EBA5
:100D00008200026E22F080720A430266297F226806
:100D10002869012910D0002102EB8000026E22F028
:100D200000720A4302667DE0002202F04FFF206855
:100D3000416941F00041C5E74FF00071ECE7002147
:100D400002F02EFF400320684FF0000172D002F045
:100D500027FF90FAA0F0B0FA80F1286842036ED025
:100D600090FAA0F0B0FA80F0814204D1002211463E
:100D7000206802F03AFF0121206802F011FF4003D1
:100D800020684FF001015DD002F00AFF90FAA0F058
:100D9000B0FA80F12868420359D090FAA0F0B0FA76
:100DA00080F0814204D100220121206802F01DFF61
:100DB0000221206802F0F4FE400320684FF0020197
:100DC00048D002F0EDFE90FAA0F0B0FA80F1286869
:100DD000420344D090FAA0F0B0FA80F0814204D1EE
:100DE00000220221206802F000FF0321206802F0A7
:100DF000D7FE400320684FF0030133D002F0D0FE4D
:100E000090FAA0F0B0FA80F1286842032FD090FA4F
:100E1000A0F0B0FA80F0814204D1002203212068C2
:100E200002F0E3FE2068816811F0010F22D0ACE0EF
:100E300000E004E002F0B4FEC0F384618DE7C0F38B
:100E4000846091E702F0ACFEC0F38461A2E7C0F3D6
:100E50008460A6E702F0A4FEC0F38461B7E7C0F3A4
:100E60008460BBE702F09CFEC0F38461CCE7C0F372
:100E70008460D0E72A7B296850F8B03FC1F3120C98
:100E800023EA0C0302F0180C664A22FA0CF20A401C
:100E900013430360E968494577D1286841031CD0B2
:100EA00090FAA0F1B1FA81F1491C01F01F01092962
:100EB0004FEA403132D8002912D000BF90FAA0F199
:100EC000B1FA81F101F1010101F01F0106FA01F609
:100ED00009D100BFC0F3846109E0C0F38461E3E796
:100EE000C0F38461EEE790FAA0F1B1FA81F101F16B
:100EF000010101F01F0146EA816102D1C0F3846063
:100F000003E090FAA0F0B0FA80F000F1010000F0E8
:100F10001F0000EB400041EA005132E000290ED0F2
:100F200090FAA0F1B1FA81F101F1010101F01F0184
:100F300006FA01F606D100BFC0F3846106E0C0F3F3
:100F40008461F1E790FAA0F1B1FA81F101F10101B8
:100F500001F01F0146EA816102D1C0F3846003E021
:100F600090FAA0F0B0FA80F000F1010000F01F004C
:100F70002D4A00EB400002EB005041EA000141F035
:100F80000071AA68206802F021FE28482A680242FF
:100F90003FF466AE26488168264B01F0E0719A4224
:100FA00002D0254B9A421CD10B021AD42268B2F10E
:100FB000A04F7FF455AE826841F4000122F0E07248
:100FC0000A4382601D481E490068B0FBF1F0401CD6
:100FD00000EB4000800000E0401E00900028FBD1A4
:100FE0003EE6184D184BAA4207D1CD0105D4226820
:100FF0009A42F5D041F0807109E0144DAA42EFD138
:101000004A02EDD422689A42EAD041F48001826813
:1010100022F0E0720A43826022E6000000007F4076
:1010200000F0FF03FFFF0700000020FE0000088023
:1010300000030050000021C31000C0902C000020CD
:10104000400D0300000052C700010050000084CB97
:10105000F8B54FF0000504002E46009502D0E06D73
:1010600010B107E00120F8BD204600F0EBF826663D
:1010700084F8586020688168C1F3407119B18168B3
:10108000684A1140816020688168C1F3007189B9A4
:101090008168654A114041F080518160634864492C
:1010A0000068B0FBF1F04000801C00E0401E0090A2
:1010B0000028FBD120688168C1F3007141B9E16D5E
:1010C00041F01001E165216E41F001012166012529
:1010D00002F074FDE16DC90600D430B1E06D40F05E
:1010E0001000E06501252846F8BDE06D20F4807011
:1010F00040F00200E0652068806810F0010F11D117
:101100004FF0A04080684B4900F00100896801F071
:101110000101084306D148486168826822F47C12C4
:101120000A438260E168E06B627F0843A16841EA9C
:101130004231084394F8241040EA0140012904D1C7
:10114000218D3E4A02EB41410843E16A29B101F495
:101150007871226B014342EA01002268D168384B62
:1011600019400143D16020680169626B21F0406140
:1011700011430161206802F019FD70BB207F94F8D3
:101180003810800340EA41022168C86844F2020333
:1011900098431043C86020690028206801690AD07C
:1011A00041F480310161206850F8C01F22696FF35B
:1011B0000D01114307E021F480310161206850F8EE
:1011C000C01F6FF30D01016094F8400001280CD09E
:1011D0002068016921F0010101616069012820682E
:1011E000016B21F00F0111D013E0D4E91101084384
:1011F000D4E913121143084321680A6940F2FC73D1
:101200009A43104340F001000861E6E7226A521E4B
:1012100011430163E06D20F0020040F00100E06541
:1012200061E70000C0FFFF5FC0FFFF7F2C000020D0
:10123000400D030000010050000300500000FEFFBD
:101240000740F0FF2DE9F04F97B00546142168469E
:10125000FFF756F9442105A8FFF752F94FF0005067
:101260002968604F8613604C4FF0000A4FF0030866
:101270004FF0800BB1F1A04F10D05C4A914257D192
:101280000596149005A800F0B7FE08B1FFF767FBBC
:101290003868401C386001284DD054E00596149001
:1012A00005A800F0A9FE08B1FFF759FB3868401CFB
:1012B0003860012807D1E06C40F40050E064E06C35
:1012C00000F400501690E06C40F00100E064E06C27
:1012D00000F001001690E06C40F00200E064E06C69
:1012E000052700F0020016900097CDE9018A4446D8
:1012F000564669464FF0904000F05CFB4FF480503A
:101300008DE8510069463A4800F054FB3A4C3948A0
:101310002060C4E901768015E660C4E904B080006D
:10132000C4E90606C0002062204653E06C65A56251
:1013300017B0BDE8F08FE06C40F40050E064E06C62
:1013400000F400501690E06C40F00100E064E06CA6
:1013500000F001001690E06C40F00400E064E06CE6
:1013600000F004001690E06C40F00200E064E06CD5
:101370004FF0100900F002001690CDF80090CDE972
:10138000018A4446574669464FF0904000F012FBF0
:10139000CDF80090CDE901476946184800F00AFBF6
:1013A000CDE9006469461248029700F003FB124C35
:1013B00010486034143020602420C4E901074FF441
:1013C0008070E760C4E904B08000C4E90607C0008B
:1013D0002062204600F010F90028A7D0FFF7BFFADE
:1013E000A4E700001C000020001002400001005093
:1013F00000040048080002400004002000080048E3
:1014000070B5040004D094F82100002510B106E066
:10141000012070BD84F82050204600F00BF8656272
:101420006560A560E56025610120656184F82100A3
:10143000002070BD08B500680649884208D10648FA
:10144000816C41F008018164806C00F0080000901C
:1014500008BD0000000C02400010024010B590F8DA
:10146000253000210122022B03D00421C163012178
:1014700022E003681C6824F00E041C60836C1C6866
:1014800024F480741C6003681C6824F001041C6050
:1014900090F84430046C03F01F0302FA03F3636016
:1014A000D0E913345C60436D33B11C6824F480745C
:1014B0001C60D0E916345C6080F82520002280F89A
:1014C0002420084610BD70B590F825200024012185
:1014D0002346022A07D00422C26380F8251080F830
:1014E0002430012429E00268156825F00E051560F6
:1014F0000268156825F001051560826C156825F4F1
:101500008075156090F84420056C02F01F0201FA06
:1015100002F26A60D0E913255560426D32B1156858
:1015200025F480751560D0E91625556080F82510E2
:1015300080F82430816B01B18847204670BDF0B43B
:10154000016C0C6801680D6890F8442002F01F06D9
:10155000042202FA06F3234211D06B070FD50B6861
:101560009B0603D40B6823F004030B6090F844102F
:1015700001F01F018A40016C4A60016B1DE00223EB
:1015800003FA06F727424FF0000C4FF0010218D083
:10159000AF0716D50C68A40605D40C6824F00A041D
:1015A0000C6080F8252090F8441001F01F018B405A
:1015B000016C4B6080F824C0C16A00291AD0F0BCCD
:1015C00008470823B340234214D02B0712D50B68D9
:1015D00023F00E030B6090F84410036C01F01F0120
:1015E00002FA01F15960C26380F8252080F824C016
:1015F000416BE2E7F0BC704770B504000CD02B4A99
:1016000021681420914209D2294A0A44B2FBF0F021
:101610008000606427480AE0012070BD234A5242DE
:101620000A44B2FBF0F0800060642048083820646F
:10163000022084F825000A6847F6F0708243D4E956
:1016400002031843D4E904352B431843A369184314
:10165000E3691843236A1843104308602046FFF7E4
:101660004BF9A0680025B0F5804F00D16560A16CF2
:1016700020790860D4E9130141606068401E0328A6
:1016800008D82046FFF758F9606D0560D4E91601C7
:10169000416002E06565A565E565E563012084F8C4
:1016A000250084F82450002070BD0000080402408A
:1016B000F8FFFDBF000002402DE9F041040006D014
:1016C000DFF8E88194F85C00002518B107E00120FC
:1016D000BDE8F08184F85D50204600F0EFF8206806
:1016E000816921F01001816100F08EFA064603271E
:1016F00005E000BF00F088FA801B0A2811D8206896
:1017000080690007F6D42068816941F00101816198
:1017100000F07AFA06460BE000F076FA801B0A2801
:1017200006D9206E40F00100206684F85C70CEE798
:1017300020688069C007EFD02068816941F002010C
:1017400081612168414502D1594960680860207C67
:1017500001282068816937D041F040018161607CB7
:1017600001282068816932D021F480418161A07C08
:101770000128206881692DD041F480518161206861
:101780008169A26821F440711143816120688169F7
:1017900021F0A40181612068016921F0100101613B
:1017A000E068012819D010B302281BD02068816995
:1017B00041F0800181612068016941F010010161FF
:1017C000E06803280ED012E021F04001C6E741F4A2
:1017D0008041CBE721F48051D0E72068816941F056
:1017E000040103E02068816941F020018161207ECD
:1017F000E26940066FF0FF0101EB0222A0F10070E8
:101800001043226AA38A521E10430A0202EB0343CA
:1018100018432368D861A068B0F5407F10D1D4E99F
:101820000A0301EB0321401E0843216B131303EB52
:1018300001110843A18C02EB014108432168C860F3
:10184000206850F8C01FE26B114301601948206402
:10185000216851F8802FA38E22F4F81242EA034245
:101860000A60144970316164216851F8802F94F83E
:10187000383022F0706242EA03620A600D49B031EA
:10188000A1640D49E1640C49D83121650A49F03160
:10189000616500F5547120C08842FCD3A5652566BA
:1018A000012084F85C00002012E700000064004082
:1018B0000065004000A4004088A5004010B598B025
:1018C0000446142111A8FEF71BFE44216846FEF7CA
:1018D00017FE17492068884228D1801400904003E1
:1018E0000C90684600F088FB08B1FFF738F8114803
:1018F000816D41F000718165816D01F0007116917B
:10190000C16C41F00101C164C06C11A900F001007B
:1019100016904FF4C05011900220129000201390A6
:10192000149009201590C00600F044F818B010BDBE
:10193000006400400010024070B5040004D094F828
:101940003100002510B106E0012070BD84F8305050
:10195000204600F01BF820466560FFF723F820467C
:10196000FFF700F8012808D06563202084F83100D3
:101970005FF0000084F8305070BD606B40F01000E4
:101980006063A02084F831000120F3E708B5006807
:101990000649884208D10648816C41F010018164F3
:1019A000806C00F01000009008BD000000140240A0
:1019B000001002402DE9F04FDFF8209200230126AD
:1019C0000324A9F1040B85B00F2709F1040AABF138
:1019D000040EFAE006FA03F52A407CD091F804C020
:1019E0000CF0030CBCF1010F02D0BCF1020F26D1A8
:1019F000D0F808C0CDF800C04FEA430C04FA0CF848
:101A0000CDF810C0DDF800C02CEA080CCDF800C0FD
:101A1000D1F80C80DDF810C008FA0CF8DDF800C031
:101A200048EA0C08C0F80880D0F804C02CEA050C7D
:101A30000D79C5F300159D4045EA0C0545600D790B
:101A4000ED43AD070ED0C5684FEA430804FA08FC21
:101A500025EA0C05D1F808C00CFA08FC4CEA050C84
:101A6000C0F80CC00D7905F00305022D16D1DD0874
:101A700000EB850CCDF808C0DCF820805D074FEA4C
:101A8000D56C07FA0CF528EA05080D6905FA0CF57E
:101A9000DDF808C045EA0805CCF8205005684FEA93
:101AA000430CCDF808C004FA0CFC25EA0C0591F8AB
:101AB00004C00CF00308DDF808C008FA0CF848EA86
:101AC0000508C0F800804D6815F4403F7CD0444DB7
:101AD000D5F860C000E077E04CF0010CC5F860C0BC
:101AE0002D6E23F0030C05F0010500953D4D654476
:101AF0000295AD684FEA837C4FEA1C7807FA08FC30
:101B000025EA0C05B0F1904F06D0DFF8DCC0604547
:101B100005D14FF0010C20E04FF0000C1DE0DFF884
:101B2000CCC0604502D14FF0020C16E0DFF8C0C017
:101B3000604502D14FF0030C0FE0DFF8B8C06045FC
:101B400002D14FF0040C08E0DFF8ACC0604502D1D0
:101B50004FF0050C01E04FF0060C0CFA08FC4CEAC3
:101B6000050C029DC5F808C0D9F80050CC46D1F844
:101B7000048095435FEAC82800D51543CCF800508F
:101B8000DAF80050D446D1F8048095435FEA8828FB
:101B900000D51543CCF80050DBF80050DC46D1F8F6
:101BA000048095435FEA883800D51543CCF800508F
:101BB000DEF80050F446D1F8048095435FEAC83857
:101BC00000D51543CCF800505B1C0A6832FA03F5C7
:101BD0007FF400AF05B0BDE8F08F000008040140BD
:101BE00000100240000001400004004800080048C6
:101BF000000C004800100048001400480AB1816140
:101C0000704781627047000001488068704700009B
:101C100020000020024881684268114481607047BA
:101C20002000002010B50024032000F09BF80F20B6
:101C300000F008F808B1012401E000F047F8204660
:101C400010BD000030B505461B4887B0016E41F459
:101C500080210166006E06A900F48020009001A892
:101C600000F0FCFB00F02CFC1449154AB0FBF1F12C
:101C70001448491E0260416040F2E7320021C0E989
:101C80000321816000F0E9FF040012D10D4801F04A
:101C90005BF804000DD11A2000F036F8102D07D2A1
:101CA000002229461A2000F03DF80748056000E0B0
:101CB000012407B0204630BD0010024040420F0012
:101CC00000480140E0090020200000200D4808B530
:101CD000016E41F001010166016E01F00101009108
:101CE000816D41F080518165806D002200F080504F
:101CF00000900F21901E00F015F8BDE8084000F09C
:101D000073B9000000100240002809DB00F01F0238
:101D1000012191404009800000F1E020C0F800114D
:101D200070470000F0B40E4B1B680C46C3F302234F
:101D3000C3F10705042D00D90425191D072901D277
:101D4000002300E0DB1E012606FA05F1491E2140B2
:101D500099409E40761E16403143F0BC03F041B8D6
:101D60000CED00E0064900F0070208684FF6FF039B
:101D7000184040EA0220034A104308607047000000
:101D80000CED00E00000FA05F8B504004FF0000586
:101D900014D094F83A00052810D094F83A0002289C
:101DA0000CD03448016E41F001010166006E00F074
:101DB0000100009094F83A0010B104E00120F8BD51
:101DC000002084F83900204600F058F8A0682A4A1C
:101DD0004FF48071402836D0602834D020680368E2
:101DE000E66A23F0100333430360D4E90103184388
:101DF000D4E9033633431843237D012B00D000215F
:101E00000843616A0843A16A0843218E40EAC14041
:101E100094F8341040EA01612068036813401943C4
:101E2000016020688169002909DBD4E906121143A9
:101E3000226A836923F03F031A431143816194F8B6
:101E40003A0090B114E020680368E66A23F01003BA
:101E500033430360D4E901031843267D2369012E2F
:101E600000D000210B431843CBE7012084F83A004F
:101E70002846F8BD00100240113E00E070B586B063
:101E8000044614216846FEF73BFB254B22680025DB
:101E9000244903244FF090409A420CD1CA6C42F07E
:101EA0000102CA64C96C01F0010105910A218DE8A3
:101EB000320069461DE01A4B1B4E1B1D9A421CD175
:101EC000CA6C42F00102CA64CA6C02F001020592B7
:101ED000CA6C42F00202CA64C96C01F002010591A9
:101EE00020218DE832006946FFF764FD4FF4804001
:101EF00011E0FFF75FFD06B070BD0948083082426F
:101F0000F9D1C86C40F00200C864C86C00F002004F
:101F1000059042F204008DE8310069463046E8E75A
:101F20000003014000100240000400482B492C4BE4
:101F30000A6832214A432B4940B1B0F5007F086856
:101F400029D020F4C06040F480602CE00868C0F321
:101F50004120022804D051F8800F20F4807022E044
:101F6000D1F8800020F48070C1F88000086820F467
:101F7000C06040F400700860B2FBF3F0401C00E069
:101F8000401E4A69520501D50028F9D1486940052B
:101F90000AD503207047C0F34120022806D051F82B
:101FA000800F40F48070086000207047D1F88000F6
:101FB00040F48070C1F88000086820F4C06040F4EC
:101FC00000700860B2FBF3F0401C00E0401E4A695C
:101FD0005205DBD50028F9D1D8E700002C000020FD
:101FE00040420F00007000400248816841F4804187
:101FF00081607047007000402DE9F8430446006896
:1020000000269D4D00035ED5A86D0027C00008D4B2
:10201000A86D40F08050A865A86D012700F08050A1
:102020000090DFF85892D9F8001041F48071C9F897
:102030000010FFF7E9FD804606E000BFFFF7E4FD72
:10204000A0EB080002282BD8D9F80000C005F5D570
:10205000D5F8900010F4407014D0216C814211D05A
:10206000D5F89000D5F8901020F4407041F48031FC
:10207000C5F89010D5F8901021F48031C5F8901073
:10208000C5F89000C00711D0FFF7BEFD804641F2B1
:10209000883907E0FFF7B8FDA0EB0801494501D9F1
:1020A00003260BE0D5F890008007F3D5D5F8900013
:1020B000216C20F440700843C5F890001FB1A86D52
:1020C00020F08050A8652078C00707D0D5F8880098
:1020D000616820F003000843C5F888002078800775
:1020E00007D5D5F88800A16820F00C000843C5F892
:1020F00088002078400707D5D5F88800E16820F0EF
:1021000030000843C5F888002078000707D5D5F8C7
:102110008800216920F0C0000843C5F888002078B5
:10212000800607D5D5F88800616920F4406008432F
:10213000C5F888002078400607D5D5F88800A16941
:1021400020F440500843C5F888002078000607D5E1
:10215000D5F88800E16920F440400843C5F88800BC
:102160002088C00507D5D5F88800216A20F44030C2
:102170000843C5F888002088800507D5D5F8880071
:10218000616A20F440200843C5F888002088400593
:102190000FD5D5F88800A16A20F440100843C5F88F
:1021A0008800A06AB0F5801F03D1E86840F4801071
:1021B000E860208800050FD5D5F88800E16A20F492
:1021C00040000843C5F88800E06AB0F5800F03D1ED
:1021D000E86840F48010E8602088C0040FD5D5F886
:1021E0008800216B20F040700843C5F88800206B00
:1021F000B0F1807F03D1E86840F48010E860208867
:102200004FF0006180040ED5D5F88800626B20F095
:1022100040601043C5F88800606B884203D1E868CD
:1022200040F48010E860208840040ED5D5F888007E
:10223000A26B20F040601043C5F88800A06B884274
:1022400003D1E86840F48010E860208800040FD5CE
:10225000D5F88800E16B20F040500843C5F88800AD
:10226000E06BB0F1805F03D1E86840F48030E86053
:102270003046BDE8F88300000010024000700040C6
:102280002DE9F0470E4605004FF0000725D0DFF896
:10229000AC81D8F8000000F00F00B0420CD2D8F8A2
:1022A000001021F00F013143C8F80010D8F80000E9
:1022B00000F00F00B04210D12968614CC80741F20C
:1022C000883A5AD06868DFF87C91032808D0022841
:1022D00020682DD0400500282CDB0120BDE8F087C8
:1022E00020688001F9D5E06800F00302E068C0F3DF
:1022F0000310401C032A19D0534A00BFB2FBF0F070
:10230000E268C2F306225043E268C2F34162521C03
:102310005200B0FBF2F0484517D9A06810F0F00F5A
:102320000CD0880711D5A86840B10EE0474AE5E710
:102330008003D0E700F0D6F8484506D9A06820F021
:10234000F00040F08000A0608027A068696820F05D
:1023500003000843A060FFF757FC814606E000BF7A
:10236000FFF752FCA0EB090151453AD8A068696813
:1023700000F00C00B0EB810FF2D12868810714D572
:10238000400703D5A06840F4E060A060287800070B
:1023900005D5A06820F4605040F4E060A060A0681B
:1023A000A96820F0F000084304E0802F03D1A06862
:1023B00020F0F000A060D8F80010404601F00F01B6
:1023C000B14216D9016821F00F0131430160FFF7D6
:1023D0001BFC074607E000BFFFF716FCC11B514579
:1023E00001D903207AE7D8F8000000F00F00B042CE
:1023F000F2D12878400705D5A068E96820F4E060AC
:102400000843A0602878000706D5A068296920F451
:10241000605040EAC100A06000F064F8A1680C4A76
:10242000C1F30311515C01F01F01C8400949086064
:1024300009480068BDE8F047FFF704BC00200240EF
:102440000010024000B4C4040024F40000127A001A
:10245000A46800082C000020200000200F22026049
:102460000C4A936803F003034360936803F0F0039E
:102470008360936803F4E063C36092684FF4E063A1
:1024800003EAD20202610448006800F00F0008600D
:102490007047000000100240002002400548064935
:1024A00000688968054AC1F30221515C01F01F01EF
:1024B000C84070472C00002000100240B46800089B
:1024C0000548064900688968054AC1F3C221515C84
:1024D00001F01F01C84070472C000020001002408E
:1024E000B4680008184910B58868C0F3810217481D
:1024F000012A0BD08A684310C2F38102022A06D057
:102500008A68C2F38102032A03D0002010BD184656
:1025100010BDCA6802F00304CA68C2F30312521C59
:10252000032C02D0B0FBF2F001E0B3FBF2F0CA687A
:10253000C968C2F306225043C1F34161491C4900F6
:10254000B0FBF1F010BD0000001002400024F400C8
:102550002DE9F84304007AD02078F84DC00747D021
:10256000A868E96800F00C0001F003010C2802D013
:10257000082817D001E0032914D06068B0F5803F27
:1025800017D0B0F5A02F286817D020F4803028602D
:10259000286820F4802028606068E0B1FFF734FBF1
:1025A000064614E02868800322D560680028D2D04F
:1025B0001EE0286840F48030EDE740F48020286079
:1025C000F7E700BFFFF720FB801B642870D828685E
:1025D0008003F7D50CE0FFF717FB064605E000BFC8
:1025E000FFF712FB801B6428F0D828688003F7D41B
:1025F000207880074CD5A868E96800F00C0001F04D
:1026000003010C2802D004280DD001E002290AD0D1
:10261000E068002828682BD040F480702860FFF71D
:10262000F3FA064619E02868400502D5E06800285C
:1026300091D06868217C20F0FE4040EA016068602B
:10264000BF480068FFF7FEFA002800D120E072E1E1
:10265000FFF7DAFA801B0228B8D828684005F7D5BA
:102660006868217C20F0FE4040EA016068600FE06D
:1026700020F480702860FFF7C7FA064605E000BF27
:10268000FFF7C2FA801B0228A0D828684005F7D4BB
:102690002078000729D560690028D5F8940013D068
:1026A00040F00100C5F89400FFF7AEFA064606E0D8
:1026B00090E000BFFFF7A8FA801B022886D8D5F863
:1026C00094008007F6D510E020F00100C5F89400D2
:1026D000FFF79AFA064604E0FFF796FA801B0228F5
:1026E00078D8D5F894008007F6D42078400761D5D3
:1026F000A86D0026C00008D4A86D40F08050A865E1
:10270000A86D012600F0805000908E480168C90530
:1027100011D40168804641F480710160FFF774FABA
:10272000074604E0FFF770FAC01B022852D8D8F819
:102730000000C005F6D5A068012815D00528D5F8F9
:10274000900016D020F00100C5F89000D5F8900058
:1027500020F00400C5F89000A06841F28838B8B1B4
:10276000FFF752FA07460EE0D5F8900040F001005E
:10277000F0E740F00400C5F89000F5E7FFF744FAF1
:10278000C11B414526D8D5F890008007F6D50CE04E
:10279000FFF73AFA074604E0FFF736FAC11B414556
:1027A00018D8D5F890008007F6D41EB1A86D20F097
:1027B0008050A8652078800629D5A0690028D5F822
:1027C000980013D040F00100C5F89800FFF71CFAFC
:1027D000064606E075E000BFFFF716FA801B0228E8
:1027E0006FD8D5F898008007F6D510E020F00100EA
:1027F000C5F89800FFF708FA064604E0FFF704FA68
:10280000801B02285DD8D5F898008007F6D4E069CF
:10281000F0B3A968C1F3810103295DD002282868BB
:1028200020F08070286003D0FFF7EEF904464BE0FB
:10283000FFF7EAF9064604E0FFF7E6F9801B0228F5
:102840003FD828688001F7D4F4E908016FF00F023F
:1028500002EB01110843218A5204490802EB41515D
:10286000A26841EA02210843217D4FF07E424908D7
:1028700002EB41610843217B40EAC160E968324ACA
:1028800011400843E860286840F08070286000E04C
:102890005EE0E86840F08070E860FFF7B5F9044654
:1028A00005E000BFFFF7B0F9001B022809D828682F
:1028B0008001F7D54CE000BFFFF7A6F9001B022806
:1028C00002D90320BDE8F88328688001F4D4E868C1
:1028D0001E490840E8603BE00128F3D0E868226A1E
:1028E00000F00301914226D1616A00F0F002090173
:1028F000103991421FD1A26A00F4FE41B1EB022FC0
:1029000019D194F82C2000F07841B1EBC26F12D1AC
:10291000218E00F4C00249084905A1F50011914239
:1029200009D194F8341000F0C06049084906A1F1BB
:10293000007181420CD00120C4E700000010024069
:1029400020000020007000400C809F01FCFFEEFE84
:102950000020B7E770B5040009D0606A002540B1D7
:1029600025616561A56294F85D0040B10CE001202D
:1029700070BD6068B0F5827FF4D0E561F2E784F85D
:102980005C50204600F05CF8022084F85D0020686E
:10299000016821F040010160E1684FF4E06291427A
:1029A00001D9002001E04FF48050B1F5706F02D0E2
:1029B000914200D0A562A188228901F4827102F4BB
:1029C00004421143227C02F002021143227D02F0F4
:1029D00001021143228B02F400721143227F02F0A4
:1029E0003802114394F8202002F080021143228D16
:1029F00002F40052114322681160A169042202EA24
:102A0000114194F8242000F4805002F01002114388
:102A100094F8342002F008021143A28902F4706293
:102A200011430143206841602068C16921F40061BD
:102A3000C1612566012084F85D00002070BD0000A2
:102A4000F0B587B0064614216846FDF759FD2849C0
:102A5000306888424AD12748016E41F480510166AE
:102A6000016E01F480510591C16C41F00201C16415
:102A7000C06C002400F00200059038200090022075
:102A8000CDE901040520CDE9034069461A48FEF767
:102A900091FF1B4D1948802728600A20C5E90104D1
:102AA000C5E903476C61AC61EC6128462C62FEF716
:102AB000A3FD08B1FDF753FFB565AE62104D0F4899
:102AC0006035143028600B20686005F10801102083
:102AD00081E891006C61AC61EC6128462C62FEF7E4
:102AE0008BFD08B1FDF73BFF7565AE6207B0F0BD29
:102AF000003001400010024000040048580002402D
:102B00009C060020704770477047000030B590F871
:102B10003C20012A42D0012280F83C20CA688B6800
:102B200022F440721A434B6822F480621A430B6805
:102B300022F400621A430B6922F480521A434B6953
:102B400022F400521A430B6B22F480421A430B8B7F
:102B500022F4702242EA0342CB6922F080521A43E7
:102B60000F4D03680024AB4202D00E4DAB4210D192
:102B70000D8D22F4700242EA05520D6A22F0807235
:102B80002A434D6A22F000722A43C96A22F0005299
:102B90000A435A6480F83C40002030BD022030BD1A
:102BA000002C01400034014070470068416D41F441
:102BB000003141650020704770477047F0B590F8CC
:102BC0003C20012A3AD0012580F83C50022280F8AE
:102BD0003D2003685A689C68194E1A4FB34201D0D1
:102BE000BB4204D122F4700C4A6842EA0C02DFF8BE
:102BF00058C002EA0C02D1F800C04CEA020CC3F83B
:102C000004C00268B2420DD0B2F1804F0AD00F4B1F
:102C10009A4207D00E4B9A4204D0BA4202D00D4BD2
:102C20009A4204D1896824F080031943916080F8A6
:102C30003D50002180F83C100846F0BD0220F0BD58
:102C4000002C0140003401408FFFFFFD00040040D4
:102C50000008004000400140704710B5040003D058
:102C600094F83D0010B107E0012010BD002084F869
:102C70003C00204600F022F8022084F83D00211D8F
:102C8000206801F089FB012084F8480084F83E00A8
:102C900084F83F0084F8400084F8410084F8420042
:102CA00084F8430084F8440084F8450084F8460022
:102CB00084F8470084F83D00002010BD08B51E4A86
:102CC00001681E4891420ED1016E41F40061016617
:102CD000006E002200F4006000900F211A20FFF720
:102CE00021F81A2022E0164A91420ED1816D41F05E
:102CF00010018165806D002200F010000090052118
:102D00003620FFF70FF8362010E00E4A914211D11D
:102D1000816D41F020018165806D002200F020006E
:102D2000009005213720FEF7FDFF3720BDE8084061
:102D3000FEF7EABF08BD0000002C01400010024071
:102D4000001000400014004090F83D10012901D00F
:102D500001207047022180F83D100168CA6842F0E6
:102D60000102CA600068104988420ED0B0F1804F5D
:102D70000BD00E49884208D00D49884205D00D4934
:102D8000884202D00C49884207D181680B4A114021
:102D9000062906D0B1F5803F03D0016841F001015A
:102DA0000160002070470000002C0140000400403A
:102DB00000080040003401400040014007000100CD
:102DC00070B5044690F83C000025012814D0012677
:102DD00084F83C60022084F83D0022689068364BFD
:102DE000184020F47F409060086870282ED010DCD6
:102DF00010F00F0F03D021E04FF0020070BD4FEA3A
:102E00002012072A1AD2DFE802F0525252524A38F0
:102E100040002A4BC21A984249D009DCB0F5805FC5
:102E20000DD0B0F5005F1CD0B0F1101F06D13EE010
:102E3000102A3CD0202A3AD0502A38D0012584F8D4
:102E40003D60002084F83C00284670BDCB68D1E985
:102E50000121206801F00BFB2068816841F07701B7
:102E600009E0CB68D1E90121206801F000FB20686E
:102E7000816841F480418160E1E7CA68496820685F
:102E800001F0A0FC5021206806E0CA68496820686B
:102E900001F0E0FC6021206801F0F4FACFE7CA6895
:102EA0004968206801F08EFC40212068F4E7226820
:102EB00001461046F0E7000088FFCEFF200010001A
:102EC00070472DE9F041054690F83C0000260C467D
:102ED000012810D0012085F83C0072B1042A1CD0D2
:102EE000082A2CD00C2A50D00126002085F83C005E
:102EF0003046BDE8F0810220FBE7D4E90012E36828
:102F0000286801F071FC2868816921F00C01816159
:102F100028688169A26811430FE0D4E90012E368D0
:102F2000286801F0A9FC2868816921F44061816169
:102F300028688169A26841EA02218161D5E7286891
:102F4000D4E9002C277B036A016A21F480710162B5
:102F5000C16923F4206321F0030141EA0C0121F04F
:102F6000F00C39074FF420674CEA116107EA02229E
:102F70001A43C16102622868C16921F00C01C16174
:102F80002868C169A26811432BE02868D4E90021B0
:102F9000E768036AD0F820C02CF4805CC0F820C039
:102FA000D0F81CC023F420432CF4407C4CEA0121CF
:102FB00021F4704C4FF6FF7101EA07314FF42047BE
:102FC00041EA0C0107EA02321A43C1610262286831
:102FD000C16921F44061C1612868C169A26841EA00
:102FE0000221C16181E710B5040003D094F83D00CF
:102FF00010B107E0012010BD002084F83C002046FD
:1030000000F022F8022084F83D00211D206801F024
:10301000C3F9012084F8480084F83E0084F83F009A
:1030200084F8400084F8410084F8420084F84300AA
:1030300084F8440084F8450084F8460084F847008A
:1030400084F83D00002010BD10B586B00446142160
:103050006846FDF755FA1249206888421DD111488B
:10306000816D41F004018165816D01F004010591DC
:10307000C16C41F00201C164C06C002100F002008B
:1030800005904FF4307000900220CDE90101CDE9A8
:10309000031069460448FEF78DFC06B010BD000021
:1030A0000008004000100240000400482DE9F041F3
:1030B00004460068C66805694FF00007A90713D5E4
:1030C000B10711D5F91E01610120207720688069C0
:1030D0008007204602D0FFF7F3FE04E000F0F6F888
:1030E000204600F0B8F92777680716D5700714D581
:1030F00021686FF004000861022020772068806951
:1031000010F4407F204602D0FFF7DAFE04E000F022
:10311000DDF8204600F09FF92777280715D53007FE
:1031200013D521686FF0080008610420207720681B
:10313000C0698007204602D0FFF7C2FE04E000F01D
:10314000C5F8204600F087F92777E80616D5F0067F
:1031500014D521686FF010000861082020772068DE
:10316000C06910F4407F204602D0FFF7A9FE04E0BA
:1031700000F0ACF8204600F06EF92777E80708D099
:10318000F00706D021686FF001000861204600F0CA
:10319000E1F9280601D4A80408D5300606D521682F
:1031A0006FF4025008612046FFF7ADFCE80508D532
:1031B000300606D521686FF4807008612046FFF75D
:1031C000A1FC680608D5700606D521686FF040009E
:1031D0000861204600F00EFAA80608D5B00606D50C
:1031E00021686FF0200008612046FFF78DFCE8029F
:1031F00008D5F00206D521686FF4801008612046DA
:10320000FFF7DAFCA80208D5B00206D521686FF4F2
:10321000001008612046FFF7C7FC680208D570025D
:1032200006D521686FF4800008612046FFF7C5FCD1
:1032300028020AD5300208D521686FF40000086121
:103240002046BDE8F041FFF707BDBDE8F081000072
:1032500070B586B0044614216846FDF751F9184947
:103260002068884229D11748C16C41F00101C1642E
:10327000C16C01F001010591C16C41F00201C16412
:10328000C06C022500F0020005904FF4F060009041
:103290000024CDE901540626CDE9034669464FF0E6
:1032A0009040FEF787FB03200090CDE90154CDE963
:1032B000034669460448FEF77DFB06B070BD00007A
:1032C000002C01400010024000040048704770B517
:1032D000044690F83C0000260D4601280BD0012042
:1032E00084F83C000C2A4AD007DC82B1042A20D0A2
:1032F000082A06D131E0022070BD102A53D0142ACA
:1033000063D00126002084F83C00304670BD206860
:1033100001F0C2F82068816941F0080181612068EC
:10332000816921F004018161206881692A69114362
:1033300011E0206801F0FEF82068816941F4006125
:1033400081612068816921F48061816120688169DF
:103350002A6941EA02218161D4E7206801F032F94B
:103360002068C16941F00801C1612068C16921F08C
:103370000401C1612068C1692A69114311E0206814
:1033800001F068F92068C16941F40061C1612068F9
:10339000C16921F48061C1612068C1692A6941EA7B
:1033A0000221C161AEE7206801F09CF92068016D3F
:1033B00041F0080101652068016D21F004010165FB
:1033C0002068016D2A69114311E0206801F0C2F9FB
:1033D0002068016D41F4006101652068016D21F4F0
:1033E000806101652068016D2A6941EA0221016559
:1033F00088E710B5040003D094F83D0010B107E051
:10340000012010BD002084F83C00204600F022F886
:10341000022084F83D00211D206800F0BDFF01203E
:1034200084F8480084F83E0084F83F0084F84000A7
:1034300084F8410084F8420084F8430084F8440092
:1034400084F8450084F8460084F8470084F83D007D
:10345000002010BD7047704730B50446022269B1A4
:10346000042912D0082917D00C291CD0102921D0EA
:1034700094F84300012824D0012030BD94F83E0088
:103480000128F9D184F83E201DE094F83F0001287E
:10349000F2D184F83F2016E094F840000128EBD1E7
:1034A00084F840200FE094F841000128E4D184F82A
:1034B000412008E094F842000128DDD184F8422040
:1034C00001E084F843200122206800F0C3FF194B7B
:1034D00020681949194A984209D0884207D0904279
:1034E00005D0174DA84202D0164DA84203D1456C15
:1034F00045F400454564206898420CD0B0F1804FF7
:1035000009D0114B984206D0104B984203D0884204
:1035100001D0904207D181680D4A1140062906D09A
:10352000B1F5803F03D0016841F001010160002046
:1035300030BD0000002C014000340140004001403B
:1035400000440140004801400004004000080040E1
:103550000700010010B5044600681E4988422FD1BB
:103560001E489FED1D0AA0F10C0280ED010AB1EE8C
:10357000000A80ED000A92ED000AF2EE040A1848F3
:1035800030EE200A10EE101A82ED000A814205DDAD
:10359000DFED140A30EE600A82ED000A0F490F4891
:1035A000083900F0D9FA10480C49B2EE080A80ED4B
:1035B000060A083902F080F90B490C4802F054F968
:1035C0000B492068884203D1BDE81040FEF722BBBA
:1035D00010BD000000100040000000000C000020A2
:1035E000000034430000B443B00000205C0700201A
:1035F00000480140704790F88410012918D001213B
:1036000080F884102421C0F8881001680A680B68CB
:1036100023F001030B6022F0005100224266036890
:1036200019602021C0F8881080F884201046704767
:10363000022070477047704770B5044690F88400C8
:1036400001281DD0012084F884002420C4F88800BB
:1036500020680568026822F0010202602068826822
:1036600022F060620A438260204601F021F920685E
:1036700005602020C4F88800002084F8840070BD14
:10368000022070BD70B5044690F8840001281DD05A
:10369000012084F884002420C4F88800206805688C
:1036A000026822F0010202602068826822F0604213
:1036B0000A438260204601F0FBF820680560202064
:1036C000C4F88800002084F8840070BD022070BD1A
:1036D00070477047704700002DE9F04103680446C9
:1036E000D86919689A6840F60F0528424FF000051E
:1036F0004FF002060AD187067ED501F0200702F0BE
:10370000805C57EA0C0777D0616F42E1B64FDFF873
:10371000DCC2174001EA0C0C57EA0C0C6CD05FEAD3
:10372000C07C0CD05FEAC15C09D54FF0010CC3F836
:1037300020C0D4F8903043F00103C4F890308307E0
:1037400009D5D30707D023681E62D4F8903043F020
:103750000403C4F8903043070AD5D30708D026687D
:1037600004233362D4F8903043F00203C4F890305D
:1037700003070CD501F020033B4308D0266808233B
:103780003362D4F8903043F00803C4F89030030556
:103790000BD54B0109D526684FF400633362D4F88A
:1037A000903043F02003C4F89030D4F89030002BD0
:1037B0003DD0800609D501F0200002F08051084379
:1037C00003D0616F09B120468847D4F89000216882
:1037D0008968490602D410F0280F2AD0204601F04B
:1037E0004BF92068806840061ED52068083050E8F4
:1037F000001F21F0400100E021E040E80012002A13
:10380000F3D1D4F8800078B179498163D4F880008D
:10381000FDF759FE00280AD0D4F88000816B00E043
:103820002046BDE8F04108472046FFF753FFBDE8BA
:10383000F0812046FFF74EFFC4F89050F7E7D4F828
:103840006CC02027BCF1010F7ED15FEAC06C7BD534
:103850005FEAC16C78D51020186220688068400645
:1038600051D5D4F880100A6850680004000C3ED08E
:10387000B4F85C3083423AD9A4F85E000868006866
:1038800080062CD4216851E8000F20F4807041E8B4
:103890000002002AF6D12068083050E8001F21F00D
:1038A000010140E80012002AF5D12068083050E8F4
:1038B000001F21F0400140E80012002AF5D1C4F8B1
:1038C0008C70E566216851E8000F20F0100041E897
:1038D0000002002AF6D1D4F88000FDF7BFFD26676C
:1038E000B4F85C00B4F85E10401A81B207E0B4F896
:1038F0005C1081429BD11068800698D526672046CF
:10390000FFF798FE93E7B4F85C00B4F85E10401A35
:1039100081B2B4F85E00002889D0002987D02268DF
:1039200052E8000F20F4907042E80003002BF6D11B
:103930002D4BDB432068083050E8002F1A4040E848
:10394000002CBCF1000F00E00EE0F3D1C4F88C7045
:10395000E5666567206850E8002F22F0100240E815
:103960000023002BF6D1C9E7C60209D5560207D5B8
:103970004FF4801018622046BDE8F041FFF7A9BE61
:1039800003060AD501F0800302F40002134304D0B9
:10399000A16F00297FF444AF49E7420611D54A06DA
:1039A0000FD52046016851E8002F22F0400241E87F
:1039B0000023002BF6D1C0F88870856700F0CAF8A4
:1039C00035E7020206D54A0004D52046BDE8F0419D
:1039D000FFF77EBEC00195D5002993DA2046BDE8E9
:1039E000F041FFF728BE0000010000102001000494
:1039F000694A000810B5040003D0D4F8880010B15B
:103A000007E0012010BD002084F88400204600F06B
:103A100027F82420C4F888002068016821F00101FB
:103A20000160A06A10B1204600F064FF204601F05A
:103A30004DF80128E6D02068416821F490414160AA
:103A40002068816821F02A0181602068016841F0C6
:103A5000010101602046BDE8104000F0AFBF00004A
:103A6000F0B597B00646142111A8FCF749FD442192
:103A70006846FCF745FD3249306888425DD1042034
:103A80000024009003946846FEF7B6FA08B1FCF7EC
:103A900066FF2C48816D41F480218165816D01F4C0
:103AA00080211691C16C41F00201C164C06C11A962
:103AB00000F0020016904FF4406011900220CDE912
:103AC00012040720CDE914401F48FDF773FF204D75
:103AD0001E48802728601C20C5E90104C5E903476A
:103AE0006C61AC61EC6128462C62FDF785FD08B184
:103AF000FCF735FFC6F88050AE62154D13486035AF
:103B0000143028601D20686005F10801102081E84C
:103B100091006C61AC61EC6128462C62FDF76CFD94
:103B200008B1FCF71CFFF567002205212720AE62D3
:103B3000FEF7F8F82720FEF7E7F817B0F0BD000011
:103B400000480040001002400004004830000240DD
:103B5000200900207047FEE77CB50D46044601A908
:103B60006846FCF785FD94ED010ADDED010A9DED47
:103B7000001A20EE200AD4ED000A00EEC10A85EDFD
:103B8000000A94ED010ADDED000A9DED011A20EE18
:103B9000200AD4ED000A00EE810A85ED010A7CBD01
:103BA00000EB8100006E00F0F84070478068C0F3C1
:103BB000C00070478068C0F3C00070478068C0F3E1
:103BC000800070478068C0F380007047042303EAD8
:103BD000D15310B518444369C1F3045107248C40F4
:103BE000A3438A401343436110BD00EB8100016E83
:103BF00021F00041114301667047000030B58BB0E1
:103C0000002408940994202168460A94FCF778FC63
:103C10001C484FF0A041042501604FF44031C0E939
:103C20000114C4600461C0E90545047744770121AB
:103C3000016280F82440C462046380F83840C463A1
:103C400080F84040FDF704FA08B1FCF788FE08A9A7
:103C50000C480894FCF77EFF08B1FCF780FE0A4888
:103C600000900620CDE901047F200594CDE90305ED
:103C700069460448FCF7DAFF002801D0FCF76FFE24
:103C80000BB030BD280300200200300430B589B0ED
:103C900020216846FCF734FC1948184900240160CB
:103CA0004FF44031C0E90114C46004250461C0E947
:103CB0000545047744770121016280F82440C462FD
:103CC000046380F83840C46380F84040FDF7C0F9D1
:103CD00008B1FCF744FE0B4800900620CDE9010432
:103CE0007F200594CDE9030569460548FCF79EFF52
:103CF000002801D0FCF733FE09B030BD00010050B0
:103D0000940300202000F014074910B5054808600E
:103D10000846FDF775FB002803D0BDE81040FCF70E
:103D20001EBE10BD000C0240C0040020214808B592
:103D3000816C41F004018164816C01F00401009107
:103D4000816C41F001018164806C002200F001006F
:103D5000009005210B20FDF7E5FF0B20FDF7D4FFB8
:103D6000002205210C20FDF7DDFF0C20FDF7CCFF24
:103D7000002205210D20FDF7D5FF0D20FDF7C4FF22
:103D8000002205210E20FDF7CDFF0E20FDF7BCFF20
:103D9000002205210F20FDF7C5FF0F20FDF7B4FF1E
:103DA000002205211020FDF7BDFFBDE808401020CE
:103DB000FDF7AABF00100240114810B50F4901607D
:103DC000002141608160C1600174417481741022DE
:103DD000426101228261C261026242628262C26207
:103DE000C0E90C218163C163FDF766FC002803D0A4
:103DF000BDE81040FCF7B3BD10BD000000640040FA
:103E0000E8040020074910B5054808600846FDF79A
:103E100093FD002803D0BDE81040FCF7A0BD10BD05
:103E2000001402404C05002010B5074A0021074845
:103E300001F086F8064C044A00212060243205482F
:103E400001F07EF8606010BD34680008B5420008DB
:103E500014000020BD420008F0B587B01421684668
:103E6000FCF74EFB2548C16C41F00401C164C16CF4
:103E700001F004010591C16C41F02001C164C16CE5
:103E800001F020010591C16C41F00101C164C16CD8
:103E900001F001010591C16C41F00201C164C06CE7
:103EA000174F00F002000590012240213846FDF72F
:103EB000A5FE4FF40066002231463846FDF79EFE0F
:103EC000B000002401258DE8310069463846FDF731
:103ED00071FD4020CDE900050220CDE902046946CC
:103EE0003846FDF767FD0320CDE90240CDE90065C6
:103EF00069463846FDF75EFD07B0F0BD0010024090
:103F0000000800480D4810B50B490160002140220F
:103F1000C0E9011201220161027552048161C0E908
:103F20000921C162FDF730FF002803D0BDE8104031
:103F3000FCF715BD10BD0000000301408405002002
:103F40000D4810B50B49016000214022C0E9011263
:103F5000042202610122027552048161C0E9092133
:103F6000C162FDF711FF002803D0BDE81040FCF747
:103F7000F6BC10BD04030140C00500200D4810B57B
:103F80000B49016000214022C0E9011204220261B4
:103F90000122027552048161C0E90921C162FDF765
:103FA000F3FE002803D0BDE81040FCF7D8BC10BDDC
:103FB00008030140FC050020124810B510490160BB
:103FC0004FF48271416000214FF44072C0E9021247
:103FD0004FF400720161C0E905122022C0E90721F7
:103FE00007224162C0E90A12016308214163FEF71A
:103FF000B1FC002803D0BDE81040FCF7B0BC10BDF8
:10400000003001403806002070B59CB0002419949F
:104010001A9417941894149415941C2168461694B5
:10402000FCF76EFA342107A8FCF76AFA3F483E49CC
:104030008025C0E900142021816041F2BF41C0E920
:104040000314C0E90545FEF708FE08B1FCF787FC3C
:104050004FF48050179017A93448FEF7B1FE08B10D
:10406000FCF77DFC3148FFF7C4F908B1FCF777FC99
:104070007026149614A92D48CDE91545FEF79EFD2E
:1040800008B1FCF76CFC6020009040F65F20CDE9A1
:10409000010403940494059400226946234806947D
:1040A000FFF715F908B1FCF75AFC042269461F48CE
:1040B000FFF70DF908B1FCF752FC082269461B48CE
:1040C000FFF705F908B1FCF74AFC41F25C40CDE985
:1040D00000600C2269461548FFF7F9F808B1FCF7B3
:1040E0003EFC1248FEF761FD4FF40060079040105F
:1040F000CDE90804AA20CDE90A044FF40050CDE927
:104100000C0400030E94CDE90F401194129407A9FA
:1041100006481394FEF7FAFC08B1FCF720FC0348AC
:10412000FFF796F81CB070BD002C01405C07002022
:1041300010B588B000242048059406940494009497
:10414000019402941B490394C0E900144FF6FF71D7
:10415000C0E9024104618461FEF745FF08B1FCF744
:10416000FEFB049404A914480694FEF727FD08B149
:10417000FCF7F5FB0120CDE90040029400226946DE
:104180000D480394FEF79DFE08B1FCF7E8FB0422FE
:1041900069460948FEF795FE08B1FCF7E0FB0C22E2
:1041A00069460548FEF78DFE002801D0FCF7D7FBD5
:1041B00008B010BD00080040A80700203EB500244C
:1041C0000F48009401940D4902940160A921C0E9AF
:1041D000011440F2F3118461C160FEF73EFD08B1A5
:1041E000FCF7BDFB0094694605480294FEF7E6FC27
:1041F000002801D0FCF7B3FB3EBD000000100040DA
:10420000F40700203EB500240E48009401940C49A8
:104210000294C0E9001440F2A361C0E90241846144
:10422000FEF71BFD08B1FCF79AFB009469460548B0
:104230000294FEF7C3FC002801D0FCF790FB3EBDC2
:104240000014004040080020184810B516490160CD
:104250004FF4E1314160002181600C22C160C0E96E
:1042600004128161C161016241628162FFF7C2FB98
:1042700008B1FCF774FB00210C48FFF703FA08B102
:10428000FCF76DFB00210948FFF7D6F908B1FCF7F0
:1042900066FB0648FFF7AFF9002803D0BDE81040E1
:1042A000FCF75DBB10BD0000004800408C080020FA
:1042B000FEE7FEE7012000F008FEFBE7012000F02A
:1042C00004FEFBE710B54FF0E020006902F0F6F8BD
:1042D000012803D0BDE8104001F024BE10BD10B588
:1042E00094B038216846FCF70BF914210EA8FCF7AE
:1042F00007F90020FDF71AFE01200090000401904C
:1043000002200324CDE907045521CDE909010B90D2
:104310000C900D906846FEF71BF908B172B6FEE7E7
:104320000F20CDE90E04002010901190129004216E
:104330000EA8FDF7A5FF002801D072B6FEE714B065
:1043400010BD00000248016841F47001016070472F
:1043500088ED00E0084810B5006810B10648FEF787
:10436000A5FE06480068002804D0BDE810400348B8
:10437000FEF79CBE10BD00005C070020E009002095
:104380000148FEF793BE0000F40700200148FEF745
:104390008DBE0000400800202DE9F0430268264B46
:1043A000264D274E274C4FF08049984207D048456C
:1043B00005D0A84203D0B04201D0A04203D122F0E0
:1043C00070074A683A43204FDFF880C0DFF88080EA
:1043D00098420DD048450BD0A84209D0B04207D032
:1043E000A04205D0B84203D0604501D0404503D17A
:1043F00022F44075CA682A434D6922F080022A439C
:1044000002608A68C2620A688262984207D0A0424B
:1044100005D0B84203D0604501D0404501D10969BB
:104420000163012141610169C90703D0016921F0DC
:1044300001010161BDE8F083002C0140000400404F
:1044400000080040003401400040014000440140A9
:104450000048014010B501F01F030121046A994092
:104460008C430462016A9A401143016210BD10B589
:10447000846842EA032224F47F440A432243826090
:1044800010BD00008268034B1A400A4342F0070146
:10449000816070478FFFCFFF2DE9F043056A026A04
:1044A00022F001020262436882691C4C25F0020579
:1044B00022400C6822F0030214438A68194E2A43F2
:1044C000174D194FDFF864C0DFF86490A84207D099
:1044D000B04205D0B84203D0604501D0484506D16E
:1044E00022F00808CA6842EA080222F00402A84240
:1044F00007D0B04205D0B84203D0604501D048454E
:1045000005D14D6923F440731D438B692B434360F0
:104510008461496841630262BDE8F0838FFFFEFF5A
:10452000002C0140003401400040014000440140A3
:1045300000480140F0B5056A026A22F010020262EA
:1045400042688369194C1B4E23400C6823F4407366
:1045500043EA042425F020038D6843EA0513144D33
:10456000A84201D0B04206D1CF6823F0800343EACD
:10457000071323F04003A8420AD0B04208D00E4DE2
:10458000A84205D00D4DA84202D00D4DA84207D13A
:104590004D6922F4406242EA85028D6942EA850251
:1045A00042608461496881630362F0BDFF8FFFFE52
:1045B000002C014000340140004001400044014013
:1045C00000480140F0B5056A026A22F48072026276
:1045D0004368C269194C1B4E22400C6822F003024A
:1045E000144325F400728D6842EA0522144DA84256
:1045F00001D0B04206D1CF6822F4006242EA07221D
:1046000022F48062A8420AD0B04208D00E4DA842DF
:1046100005D00E4DA84202D00D4DA84207D14D69DC
:1046200023F4405343EA05138D6943EA05134360BD
:10463000C4614968C1630262F0BD00008FFFFEFFE4
:10464000002C014000340140004001400044014082
:1046500000480140F0B5056A026A22F48052026205
:104660004268C369194C1B4E23400C6823F4407305
:1046700043EA042425F400538D6843EA0533144DBE
:10468000A84201D0B04206D1CF6823F4004343EAE8
:10469000073323F48043A8420AD0B04208D00E4D1D
:1046A000A84205D00D4DA84202D00D4DA84207D119
:1046B0004D6922F4404242EA85128D6942EA851230
:1046C0004260C461496801640362F0BDFF8FFFFE70
:1046D000002C0140003401400040014000440140F2
:1046E0000048014030B5056A026A22F48032026255
:1046F0004268036D114C23400C681C4325F40033C1
:104700000D8943EA05430E4DA8420BD00D4DA8423A
:1047100008D00D4DA84205D00C4DA84202D00C4D3A
:10472000A84204D14D6922F4803242EA0522426057
:10473000046549688164036230BD00008FFFFEFF9D
:10474000002C014000340140004001400044014081
:104750000048014030B5046A026A22F48012026205
:104760004268036D114D24F400142B400D6843EA98
:1047700005230D8944EA05540D4DA8420BD00D4D7B
:10478000A84208D00C4DA84205D00C4DA84202D03A
:104790000B4DA84204D14D6922F4802242EA8522C1
:1047A000426003654968C164046230BDFF8FFFFE4B
:1047B000002C014000340140004001400044014011
:1047C0000048014010B5036A046A24F00104046241
:1047D000846924F0F00444EA021423F00A020A4334
:1047E0008461026210BD000070B5056A046A24F09D
:1047F000010404628469124EB0420ED0B0F1804FC1
:104800000BD0104EB04208D00F4EB04205D00F4E24
:10481000B04202D00E4EB04203D124F00304144340
:1048200001E044F001041A0724F0F00444EA1262A3
:1048300025F00A0301F00A0119438261016270BD8B
:10484000002C0140000400400008004000340140FA
:104850000040014010B5036A046A24F010040462A9
:10486000846923F0A00324F4704444EA023243EA4A
:1048700001118261016210BD30B5046A056A25F03C
:1048800010050562856925F4407545EA022222F487
:1048900070454FF6FF7202EA033224F0A0032A4368
:1048A000A02404EA011119438261016230BD0000B5
:1048B00030B5416EB9B1026891689268C1F3426146
:1048C0000B4B520F9C5CE50003F10804A25CB5FBA6
:1048D000F2F2A0F86A205A5C615CD200B2FBF1F1FE
:1048E000A0F8681030BD0121A0F86A10F8E70000B8
:1048F0009468000890F82810090706D501684A68EE
:10490000836B22F400421A434A6090F82810C907CA
:1049100006D001684A68C36A22F400321A434A602A
:1049200090F82810890706D501684A68036B22F4BD
:1049300080321A434A6090F82810490706D501686A
:104940004A68436B22F480221A434A6090F8281088
:10495000C90606D501688A68C36B22F480521A43DF
:104960008A6090F82810890606D501688A68036C69
:1049700022F400521A438A6090F82810490611D593
:1049800001684A68436C22F480121A434A60416C01
:10499000B1F5801F06D101684A68836C22F4C00219
:1049A0001A434A6090F82810090606D501684A683B
:1049B000C06C22F4002202434A6070472DE9F8439C
:1049C00000260446C0F89060FDF71EF98046206876
:1049D00000684FF0200500076FF07E4713D543466F
:1049E000002229042046009700F0AAF958B1216856
:1049F00051E8000F20F0800041E80002002AF6D1C3
:104A0000C4F8885021E020680068400722D543465A
:104A100000224FF480012046009700F091F9C8B1C0
:104A2000216851E8000F20F4907041E80002002A4C
:104A3000F6D12068083050E8001F21F0010140E85D
:104A40000012002AF5D1C4F88C5084F88460032049
:104A5000BDE8F883C4F88850C4F88C5044F86C6FF3
:104A6000666026760020F3E710B5806A0021A0F882
:104A70005E10FEF72FFE10BD10B5026852E8001F51
:104A800021F4907142E80013002BF6D10E4B02681E
:104A9000083252E8001F194042E80014002CF6D1F9
:104AA000C16E012908D1016851E8002F22F01002DF
:104AB00041E80023002BF6D12021C0F88C10002102
:104AC000C166416710BD0000FEFFFFEF2DE9F04118
:104AD0000446016880682269E36910436269002521
:104AE0001A431043DFF82CC20A688B4B1A4002436A
:104AF0000A6020684168E26821F440511143416036
:104B00002168A069614501D0226A10438A68834BFD
:104B10001A4002438A602068C16A626A21F00F016C
:104B20001143C1627E4923687E488B420DD1D0F883
:104B3000880010F0030006D0012855D0022842D08A
:104B400003283FD152E001203DE077498B420BD151
:104B5000D0F8880010F00C0035D0042833D0082895
:104B600040D00C282ED141E070498B420BD1D0F8B7
:104B7000880010F0300026D0102835D0202831D001
:104B800030281FD132E06A498B420BD1D0F888001F
:104B900010F0C00017D0402826D0802822D0C0288E
:104BA00010D123E063450DD1D0F8880010F44060A7
:104BB00009D0B0F5806F17D0B0F5006F12D0B0F506
:104BC000406F13D010205B495B4F00264FF400422A
:104BD00063453BD160B1022813D004280BD00828CC
:104BE00072D10DE00220EEE70420ECE70820EAE7AE
:104BF000FDF754FC01E0FDF775FC010001D17CE0FC
:104C00001146606A37F810206768B1FBF2F007EBD5
:104C10004703834270D8B0EB073F6DD800230846A6
:104C20001946FBF7A9FB090241EA10610202780864
:104C3000101871413A460023FBF79EFB3F4AA0F54E
:104C40004071914258D82168C86056E0E3694FF638
:104C5000EF7893422CD109284ED2DFE800F0050806
:104C6000114D0D4D4D4D1000FDF718FC01E0FDF705
:104C700027FC010004D140E0FDF734FCF9E71146C0
:104C8000606A37F81000B1FBF0F04100606801EB9A
:104C90005001B1FBF0F0A0F1100141452CD84FF6C6
:104CA000F0710140C0F3420001432068C16024E07C
:104CB000092821D2DFE800F0050912200E2020206B
:104CC0001100FDF7EBFB02E016E0FDF7F9FB010038
:104CD00004D112E0FDF706FCF9E71146606A37F8E7
:104CE0001000B1FBF0F1606801EB5001B1FBF0F096
:104CF000A0F1100141450AD901250120A4F86A005C
:104D000024F8680F2846E6602661BDE8F08180B28D
:104D100099E7000000800040F369FFCFFFF4FF1126
:104D200000380140001002400044004000480040AC
:104D3000004C00400024F4007C680008FFFC0F00D9
:104D40002DE9F047994617460D4604464FF00008F6
:104D5000089E33E0701C31D0FCF756FFA0EB090031
:104D6000B04218D8BEB120680168490726D5802D09
:104D700024D0402D22D0C169C94309070DD408258C
:104D800005622046FFF778FEC4F8905084F88480CE
:104D90000120BDE8F0870320FBE7C069C0430005A0
:104DA0000CD421684FF4006008622046FFF764FECF
:104DB0002020C4F8900084F88480ECE72068C06963
:104DC00035EA000004D00020B842C3D00020E0E75C
:104DD0000120F9E70148FEF77FBC00008C080020A5
:104DE000FEE70907090E002804DB00F1E02080F847
:104DF0000014704700F00F0000F1E02080F8141D4F
:104E00007047000010B50E48FDF79EFF0D48FDF7F6
:104E10009BFF7F210C48FBF7DFFD7F210B48FBF751
:104E2000DBFD0948FBF722FE0848FBF71FFE00F0F8
:104E300011F80C210648FEF70FFB002010BD000002
:104E4000F4070020400800202803002094030020DD
:104E50005C0700200548016840F21112114301600F
:104E6000016892001143016000207047202C01402E
:104E7000FCF7D8FEFFF733FAFEF7EEFFFEF756FF1A
:104E8000FEF7BCFEFEF702FFFEF796FFFFF73AF8CB
:104E9000FFF756F8FFF772F8FFF78EF8FFF7B4F850
:104EA000FFF746F9FFF7D0F9FEF72EFFFEF7AAFF4E
:104EB000FFF784F9FFF7A6F9FFF7A4FF00F012F857
:104EC000FEF7B2FF00F020F8FEE710B5EFF3058122
:104ED00011B16FF0050403E0002408B100F0C2FE38
:104EE000204610BDEFF3058010B16FF0050070474C
:104EF0000448016811B14FF0FF3070470121016093
:104F0000002070478000002010B5EFF3058010B13D
:104F10006FF0050010BD08480168012902D04FF06C
:104F2000FF3010BD054A002182F8141D02210160E6
:104F300000F000FF002010BD800000200BE000E02A
:104F40002DE9FF414FEA01034FF00005EFF3058122
:104F5000039549BB40B38027182100244AB3166843
:104F600006B1344696691EB13146761E382E02D2FD
:104F70001679F60703D0002004B0BDE8F081566929
:104F800006B1B708D2F808C0BCF1000F0DD0D56843
:104F90005C2D18D312693AB136B18DE806103A4645
:104FA000214601F060FA03900DE0D6685EB91269FF
:104FB0004AB903AACDE90012BAB2214601F026FA95
:104FC000012800D003950398D6E700002DE9F041B1
:104FD000134C0F460546E6682068001D00F00EFDE4
:104FE000681C07D137B12168BDE8F0410D48091DA3
:104FF00000F054BD20683544B5424560216805D2B3
:10500000A06BBDE8F041091D00F030BD606B091DCB
:1050100000F02CFDA06A854200D2A562BDE8F081B7
:10502000300000201C0F00202DE9F041054600F063
:1050300041FD2D4CA068401CA06020682B4F10B192
:10504000606930B32BE02560A068012827D10026D5
:1050500006EB860007EB800000F0FAFC761C382E89
:10506000F6D3234800F0F4FC2148143000F0F0FCA3
:105070001F48283000F0ECFC1D483C3000F0E8FCF4
:105080001B48503000F0E4FC194860631430A06302
:1050900005E02068E96AC06A884200D82560606A35
:1050A000401C60626864E86A2169884200D9206116
:1050B00000EB800007EB8000291D00F0EFFC00F002
:1050C00019FD606900280CD02068E96AC06A88422E
:1050D00007D208494FF080500860BFF34F8FBFF3ED
:1050E0006F8FBDE8F0810000300000206C0A0020C6
:1050F000CC0E002004ED00E038B500F0DBFC104CD5
:105100002068C8B90F4800F0A3FC0E48143000F026
:105110009FFC0C48E060143020610A4B0020F03BFB
:10512000009003F1500210210A2000F011FF2060CE
:1051300010B105A100F060FDBDE8384000F0DABC18
:105140006C00002020100020546D725100000000FF
:1051500030B4026C0B46002A0BD0C1681144C16008
:105160008468A14201D30168C16030BC1846FBF7D6
:105170007AB930BC70472DE9F041856B174604467B
:105180000026026C82B1C7B1E068FBF76CF9E168F8
:10519000206C091AE1602268914202D2A168081AC3
:1051A000E060022F16D017E02068A8B9A06801F0CF
:1051B000FDF906460020A0600EE06068FBF753F999
:1051C000216C606808446060A168884204D320684C
:1051D000606001E005B16D1E6D1CA5633046BDE841
:1051E000F08110B5044690F8590058B101280CD050
:1051F00002280FD0502080F31188BFF34F8FBFF3E8
:105200006F8FFEE7206B00F089FC2046BDE8104060
:1052100000F084BC10BD000010484FF4406142070C
:1052200006D0C01D0D4920F00700411AC1F54061AC
:105230000B4A00230144C2E900030839183A21F05F
:10524000070111604B600B600B1AC0E900139360FB
:105250004FF000405360506170470000001700207D
:105260009C000020144E154CA6F29C474FF080582D
:10527000DFF84C9012E000BF00F01CFCF068C5683D
:10528000281D00F0BBFBA068401EA0606068401EA7
:10529000606000F02FFC2846FFF7A3FF606800283D
:1052A000EAD138680128F9D9C9F80080BFF34F8FD7
:1052B000BFF36F8FF2E70000080F002030000020DE
:1052C00004ED00E070B51D46049C51B1C4F8002007
:1052D000C4E90F010121204600F06EFE84F84C5015
:1052E00070BD2460F4E700002DE9F05F8846DDE939
:1052F0000B941546834691009A460A9EA522206B80
:10530000FBF7F6F86FF00301206B01EB8501084411
:1053100020F00707780707D0502080F31188BFF3EB
:105320004F8FBFF36F8FFEE70025B8F1000F0FD04E
:105330005FF00000221818F8001082F8341018F8F6
:10534000001011B1401C1028F4D384F8435001E040
:1053500084F83450382E00D33726E662C4E913654A
:10536000201D00F080FB04F1180000F07CFB24619C
:10537000C6F138006462A061656584F858505246F1
:105380005946384600F05AFA2060B9F1000F01D0B2
:10539000C9F80040BDE8F09F30B5114900E0114662
:1053A0000A688242FBD34B685C18844203D1406890
:1053B00018444860084643681C18944209D1084CB8
:1053C000183C2468A24209D052681A4442600A6814
:1053D00012680260814200D0086030BD0460F9E7C5
:1053E0009C00002070B5002441600B4D006191428B
:1053F00006D8D11A8269914206D2011D286907E0B8
:105400009A4203D2994201D3012403E0011DE868C6
:1054100000F02CFB204670BD6C00002010B5044647
:1054200000F048FBA06B28B15FF0000400F062FBC5
:10543000204610BD0124F9E730B589B03C4D6EE03F
:105440000498002806DADDE90601059A90470498D9
:10545000002864DB069C606910B1201D00F0CEFAC4
:1054600003A800F0D7F8024604980A2857D2DFE8CC
:1054700000F00505052D334A05052D3394F8280065
:1054800040F0010084F828000599A069059B0144BB
:105490002046FFF7A7FF68B3216A2046884794F8A3
:1054A000280040073BD5002000900598A169002303
:1054B00042181946204601F083F9D8B9502080F3EC
:1054C0001188BFF34F8FBFF36F8FFEE714F8280FDB
:1054D00020F00100207022E094F8280040F0010044
:1054E00084F828000598A06128B181181346204649
:1054F000FFF778FF13E0502080F31188BFF34F8F40
:10550000BFF36F8FFEE794F82800810703D420468D
:1055100000F004FB03E020F0010084F828000022E2
:1055200004A9286800F09CFE002889D109B030BD8C
:105530006C0000202DE9FC410F46054600F03EFCC2
:1055400001A800F067F80446019818B101F0A6F828
:10555000BDE8FC81254EAFB130690068D0B30027AB
:10556000291B3A46306800F05BFB01F097F80028F1
:10557000EED11F494FF080500860BFF34F8FBFF34B
:105580006F8FE5E7A542EBD801F088F8F068274671
:10559000C068C468201D00F031FA94F82800410763
:1055A00019D5A0692B4641193A462046FFF71AFF44
:1055B000A8B100200346014600902A46204601F08B
:1055C000FFF860B9502080F31188BFF34F8FBFF30D
:1055D0006F8FFEE707E020F0010084F82800216AC1
:1055E00020468847B4E70127BAE700006C00002096
:1055F00004ED00E00648416B096829B1416BC968B8
:10560000C9684968816270474FF0FF31FAE70000CE
:105610003000002070B5054600F05EFF064E0446DF
:10562000B068844203D200F009F8012000E00020B5
:1056300028602046B46070BD6C000020F8B5194D9C
:1056400020E0C068C4680668201D00F0D7F9216A10
:105650002046884794F82800400713D5A0693044B5
:10566000B04206D924616060211DE86800F0FEF9AF
:1056700008E000200346014600903246204601F033
:105680009FF838B1E86801680029DAD12969C5E9CD
:105690000310F8BD502080F31188BFF34F8FBFF384
:1056A0006F8FFEE76C00002008484068401C4FF0F8
:1056B000500080F3118804D0BFF34F8FBFF36F8F7A
:1056C000FEE7BFF34F8FBFF36F8FFEE7A40000200C
:1056D000074CE068016841B1C0680021D0F80000C3
:1056E000FFF728FFFFF7A8FEF3E701210020F7E707
:1056F0006C0000202DE9F041044600F0DBF994F93C
:10570000455004F1240609E0606A48B1304600F0D3
:105710008DFF08B100F0D4FA6D1E6DB2002DF3DCE0
:105720004FF0FF3684F8456000F0E4F900F0C2F96C
:1057300094F9445004F1100709E0206948B1384653
:1057400000F074FF08B100F0BBFA6D1E6DB2002DC1
:10575000F3DC84F84460BDE8F04100F0CBB9000010
:105760002DE9F0410546002700F028FB324E306855
:1057700008B9FFF751FD706905424ED1C5B3083530
:1057800068070ED005F00700C0F10800054468075F
:1057900007D0502080F31188BFF34F8FBFF36F8F76
:1057A000FEE72DB37068854237D82348183001468C
:1057B0000C6801E020460C466168A94202D22168CB
:1057C0000029F7D131688C4227D007682168016031
:1057D00060680837411B10290FD96019420708D0AB
:1057E000502080F31188BFF34F8FBFF36F8FFEE718
:1057F00013E041606560FFF7CFFD61687068401A93
:105800007060B268904200D2B060706901430020BD
:10581000C4E90001F068401CF06000F03FFF780729
:1058200007D0502080F31188BFF34F8FBFF36F8FE5
:10583000FEE73846BDE8F0818400002010B5031F64
:105840004FF080741C601B1F21F001011960191FAB
:10585000044B0B6014390A60091F6FF002024438D0
:105860000A6010BDA956000810B5D1ED030A9FEDDE
:10587000110A046860EE800AFCEEE00A10EE902A3D
:10588000D1ED040A93B260EE800AFCEEE00A10EE5D
:10589000902AD1ED050A636392B220EE800ABCEE35
:1058A000C00A10EE101A89B203689A630068C163D7
:1058B00010BD00000000264591ED001A91ED010A8F
:1058C000DFED4A0A61EE201AF6EE000A40EE601A99
:1058D0009FED472AB5EEC00A002121EE022A017091
:1058E00000EE602AF1EE10FA01DD01210170F5EE03
:1058F000C01AF1EE10FA03DDC9B241F002010170E5
:10590000B5EEC02AF1EE10FA03DDC9B241F0040190
:1059100001709FED382AF0EE401ADFED372A41EE94
:10592000021AB0EE402AC9B201EE222A072961EE1E
:10593000A01A22EE201A1CD2DFE801F01B04090E87
:10594000154B500080ED011AC0ED021A11E0C0EDB8
:10595000011AB1EE400A03E0B1EE411A80ED011ADE
:1059600080ED020A05E0B1EE400A80ED010A80ED0B
:10597000021AD0ED011A90ED021A31EE810A10EEF2
:10598000101AB1F17E5F07DD81EE802AC1EE001AA8
:1059900080ED012AC0ED021A90ED011AB7EE000A5F
:1059A000B5EE002A70EE411A90ED020A71EEC01AAF
:1059B00061EE821AC0ED031A31EE811A21EE201A2F
:1059C00080ED041A31EE000A20EE200A80ED050A6F
:1059D000704780ED010AB1EE610AC1E7B1EE610ADC
:1059E00080ED010AB1EE410ABAE70000D7B35D3F8E
:1059F000D7B35DBFD7B3DD3FD7B3DDBFD0E9013249
:105A000001699A60D0E901235A604A68824201D153
:105A100082684A60002202610868401E08600868C7
:105A200070470000034B036003F15C0008608020B6
:105A30001060704748100020044B036003F15C00C5
:105A400008604FF48070106070470000A4120020BE
:105A500000F108014FF0FF32C0E90112C16001619D
:105A600000210160704700210161704730B50B686B
:105A70005A1C02D000F1080202E0026904E022464A
:105A8000546825689D42FAD953684B6099608A60D2
:105A9000516008610168491C016030BD42684A607C
:105AA00093688B6093685960916008610168491C34
:105AB00001607047502080F31188BFF34F8FBFF310
:105AC0006F8F0A494868401C486001280CD108487B
:105AD000006810F0FF0F07D0502080F31188BFF34B
:105AE0004F8FBFF36F8FFEE770470000A4000020C8
:105AF00004ED00E00849486828B1401E486001D123
:105B000080F311887047502080F31188BFF34F8FC6
:105B1000BFF36F8FFEE70000A400002070B50028DF
:105B20002AD0164DA0F1080460686969084207D1BF
:105B3000502080F31188BFF34F8FBFF36F8FFEE7C4
:105B400022683AB1502080F31188BFF34F8FBFF322
:105B50006F8FFEE78843606000F030F96068696825
:105B6000084468602046FFF717FC2869401C28613C
:105B7000BDE8704000F092BD70BD000084000020C0
:105B80004FF0E02000210161816105494FF47A72F4
:105B90000968B1FBF2F1491E4161072101617047BB
:105BA0002C00002010B5FAF7C3FB114910280ED3C2
:105BB00000F1E02090F8F0030A78904207D25020DC
:105BC00080F31188BFF34F8FBFF36F8FFEE7094853
:105BD0000068896800F4E060884207D9502080F3AB
:105BE0001188BFF34F8FBFF36F8FFEE710BD00002A
:105BF000A40000200CED00E010B5084B002200BF0F
:105C000053F832401CB1521C082AF9D310BD43F896
:105C1000321003EBC201486010BD00002C0A0020C6
:105C200070B515460E460446FFF744FF94F944103C
:105C30000020491C01D184F8440094F94510491C06
:105C400001D184F84500FFF755FFA06B28B92A461B
:105C5000314604F1240000F051F82046BDE87040C0
:105C6000FFF748BD10B5020014D00F48006B38B1E3
:105C7000502080F31188BFF34F8FBFF36F8FFEE783
:105C800000F09CF800211046FFF7A0F900F006FD97
:105C9000002807D105494FF080500860BFF34F8FAF
:105CA000BFF36F8F10BD00003000002004ED00E056
:105CB00002490A6A0260C9684160704730000020EA
:105CC00001490120C86170473000002010B50C4622
:105CD00050B1094909681831FFF7C8FE2046BDE8F0
:105CE00010400121FFF772B9502080F31188BFF3F3
:105CF0004F8FBFF36F8FFEE73000002070B5144662
:105D00000D4668B10A4909681831FFF7C7FE0CB1A2
:105D10004FF0FF3521462846BDE87040FFF756B9E1
:105D2000502080F31188BFF34F8FBFF36F8FFEE7D2
:105D30003000002030B587B00024039405AA04A9E0
:105D400003A80494FFF76EFEDDE903010094CDE99A
:105D50000110002315A11748059A00F084FB164D89
:105D60000028E8621FD000F0FBFC012809D0401C8D
:105D700019D1502080F31188BFF34F8FBFF36F8F7D
:105D8000FEE7502080F31188BFF34F8FBFF36F8F72
:105D90004FF0FF30A86201206861EC6007B0BDE8F9
:105DA000304000F045B807B030BD000049444C45D4
:105DB0000000000065520008300000200248016B1E
:105DC000491C01637047000030000020164810B5E0
:105DD000016B11B10121C16110BD0021C1610169D7
:105DE000124A01E0B9B1491E01EB810352F8233098
:105DF000002BF7D001EB810302EB830202F10804D0
:105E000053685B685360A34201D15B685360DA68F2
:105E10000260016110BD502080F31188BFF34F8FE5
:105E2000BFF36F8FFEE70000300000206C0A0020F7
:105E30001CB537480168374A914207D1502080F39A
:105E40001188BFF34F8FBFF36F8FFEE700683149B2
:105E5000491E884207D1502080F31188BFF34F8F2D
:105E6000BFF36F8FFEE72C4908780190FF20087080
:105E700008788DF800009DF800009DF8002000F0E3
:105E8000F000904207D0502080F31188BFF34F8F6D
:105E9000BFF36F8FFEE79DF80000204C00F050002C
:105EA00020700720A06005E09DF8002052008DF8CA
:105EB0000020401E9DF800201206F5D4A0600328A3
:105EC00007D0502080F31188BFF34F8FBFF36F8F3F
:105ED000FEE74FF44070A060019808700C48203035
:105EE000016841F470010160016841F07041016096
:105EF000FFF746FE00206060FAF7E2F90848016803
:105F000041F040410160FAF7C7F900201CBD0000D4
:105F100000ED00E071C20F4100E400E0A4000020A9
:105F200034EF00E010B5502080F31188BFF34F8F9D
:105F3000BFF36F8F00F0D6FA18B104494FF08050CC
:105F40000860002080F3118810BD000004ED00E01F
:105F500038B5049D18B153B1CAB181B120E05020C9
:105F600080F31188BFF34F8FBFF36F8FFEE7502090
:105F700080F31188BFF34F8FBFF36F8FFEE7502080
:105F800080F31188BFF34F8FBFF36F8FFEE739B1F6
:105F9000502080F31188BFF34F8FBFF36F8FFEE760
:105FA00050241C46012384F846302B460094FFF70A
:105FB00089F9204638BD000070B50D46040025D093
:105FC000FFF778FDD4E90F20216802FB0011A160E2
:105FD0000021A163216861600A46D4E90F01401ED7
:105FE00000FB0121E16021464FF0FF3001F8440F32
:105FF000487004F110008DB1FFF72AFD04F1240070
:10600000FFF726FDFFF776FD012070BD502080F3DD
:106010001188BFF34F8FBFF36F8FFEE7216900290F
:10602000F0D000F003FB0028ECD004494FF0805082
:106030000860BFF34F8FBFF36F8FE3E704ED00E01D
:106040002DE9FF4782B01D468A464FF00008040044
:1060500003D0BAF1000F08D011E0502080F311886E
:10606000BFF34F8FBFF36F8FFEE7206C38B1502026
:1060700080F31188BFF34F8FBFF36F8FFEE7022DC0
:106080000AD1E06B012807D0502080F31188BFF3BC
:106090004F8FBFF36F8FFEE700F010FA3F4F4FF0C6
:1060A00000094FF0805648B9049838B1502080F369
:1060B0001188BFF34F8FBFF36F8FFEE7FFF7FAFC36
:1060C000A06BE16B884207D3022D05D00498D0B1B4
:1060D000B8F1000F1AD01EE02A4651462046FFF7BD
:1060E0004AF8616A19B104F1240000F09FFA20B166
:1060F0003E60BFF34F8FBFF36F8FFFF7FBFC0120B4
:1061000006B0BDE8F087FFF7F5FC22E06846FFF730
:10611000CFFD4FF00108FFF7EDFCFFF74FFEFFF753
:10612000C9FC94F94400401C01D184F8449094F9CE
:106130004500401C01D184F84590FFF7DBFC04A921
:10614000684600F029F930B12046FFF7D3FA00F095
:10615000A5FA0020D4E7FFF7ADFCA06BE16B884205
:1061600013D1FFF7C7FC04F110000499FFF7AEFD4F
:106170002046FFF7BFFA00F091FA00289ED13E605A
:10618000BFF34F8FBFF36F8F98E7FFF7B3FC204645
:10619000FFF7B0FA00F082FA90E7000004ED00E0AB
:1061A0002DE9F0471F4690468946040003D0B9F117
:1061B000000F08D011E0502080F31188BFF34F8FFB
:1061C000BFF36F8FFEE7206C38B1502080F3118849
:1061D000BFF34F8FBFF36F8FFEE7022F0AD1E06B43
:1061E000012807D0502080F31188BFF34F8FBFF3F1
:1061F0006F8FFEE7FFF7D6FC5020EFF3118680F398
:106200001188BFF34F8FBFF36F8FA06BE16B884294
:1062100006D3022F04D0002086F31188BDE8F08752
:1062200094F94550A06B3A4649462046FEF7A3FF35
:10623000681C04D06D1C84F845500120ECE7606AAE
:106240000028FAD004F1240000F0F0F90028F4D07E
:10625000B8F1000FF1D00121C8F80010EDE70000FF
:106260002DE9F747002683B08A46040003D0BAF12F
:10627000000F08D011E0502080F31188BFF34F8F3A
:10628000BFF36F8FFEE7206C38B1502080F3118888
:10629000BFF34F8FBFF36F8FFEE700F00FF9DFF80A
:1062A000F4804FF000094FF0805748B9059838B195
:1062B000502080F31188BFF34F8FBFF36F8FFEE73D
:1062C000FFF7F8FBA56BC5B151462046FEF740FF2E
:1062D0006D1EA563206950B104F1100000F0A6F90D
:1062E00028B1C8F80070BFF34F8FBFF36F8FFFF76F
:1062F00001FC012006B0BDE8F087059808B11EB189
:1063000006E0FFF7F7FB27E06846FFF7D1FC012620
:10631000FFF7F0FBFFF752FDFFF7CCFB94F94400C9
:10632000401C01D184F8449094F94500401C01D1EF
:1063300084F84590FFF7DEFB05A9684600F02CF8CD
:10634000002820460AD0FFF7D5F900F0A7F920462B
:10635000FFF764F80028B3D00020CBE7FFF75EF822
:1063600090B104F124000599FFF7B0FC2046FFF737
:10637000C1F900F093F90028A2D1C8F80070BFF36A
:106380004F8FBFF36F8F9BE72046FFF7B3F900F005
:1063900085F995E704ED00E02DE9F0410C46050094
:1063A00011D0C4B1FFF786FB174BDA686E6820681E
:1063B000911B471C17D02F681B6A9F4219D0964229
:1063C00017D8012410E0502080F31188BFF34F8FBD
:1063D000BFF36F8FFEE7502080F31188BFF34F8F1C
:1063E000BFF36F8FFEE70024FFF784FB2046BDE874
:1063F000F081884205D9401A20602846FFF758FCF2
:10640000F1E700202060DCE7300000202DE9FF5F8D
:106410008346DDE90E87994616468A469000FFF7C7
:106420009FF905001CD05C20FFF79AF9040014D0F6
:106430000020256384F85900CDE90240CDE90087AA
:106440004B46324651465846FEF74EFF2046FEF771
:10645000EBFD012004B0BDE8F09F2846FFF75EFB8E
:106460004FF0FF30F6E7F0B585B0DDE90B640A9D2B
:10647000A6B1DCB15C2700972663022684F8596038
:10648000002604AFCDE90246CDE90057FEF72CFF08
:106490002046FEF7C9FD049805B0F0BD502080F3FA
:1064A0001188BFF34F8FBFF36F8FFEE7502080F34B
:1064B0001188BFF34F8FBFF36F8FFEE70548416927
:1064C00019B1006B18B100207047012070470220FD
:1064D00070470000300000200148C068704700008D
:1064E000300000202DE9F0412E4C0027206B28B110
:1064F000A069401CA0613846BDE8F081E668761CC2
:10650000E66013D1606B006838B1502080F31188C9
:10651000BFF34F8FBFF36F8FFEE7606BA16B6163BB
:10652000A063206A401C2062FFF764F8A06ADFF8CD
:106530007880864209D3606B0068A0B1606BC06848
:10654000C5686868864211D2A0622068C06A00EB04
:10655000800158F82100012800D90127E0690028AE
:10656000C9D00127C7E74FF0FF30EDE7281DFFF73F
:1065700045FAA86A18B105F11800FFF73FFAE86A72
:106580002169884200D9206100EB800108EB81007D
:10659000291DFFF783FAE86A2168C96A8842CAD3CD
:1065A0000127C8E7300000206C0A002070B5040005
:1065B0004FF0000133D01B4D2868844207D0502093
:1065C00080F31188BFF34F8FBFF36F8FFEE7206D0D
:1065D00038B1401E2065E36CE26A9A421FD040B198
:1065E0001DE0502080F31188BFF34F8FBFF36F8FF2
:1065F000FEE7201DFFF702FAE06CE062C0F1380010
:10660000A061E06A2969884200D92861064900EB47
:10661000800001EB8000211DFFF740FA01210846B0
:1066200070BD0000300000206C0A002070B5C0680A
:10663000C46854B104F118000646FFF7DFF9144DA1
:10664000286B50B13146134815E0502080F3118873
:10665000BFF34F8FBFF36F8FFEE7201DFFF7CEF91B
:10666000E06A2969884200D928610B4900EB800063
:1066700001EB8000211DFFF711FAE06A2968C96A61
:10668000884202D90120E86170BD002070BD000081
:1066900030000020F40E00206C0A00202DE9F047A5
:1066A0002C4D00242746286B38B1FFF703FA286BDE
:1066B000401E2863286B40B146E0502080F31188CB
:1066C000BFF34F8FBFF36F8FFEE7A968224E012003
:1066D000D1B3A6F5916980463068E0B1F068C4682E
:1066E00004F11800FFF78AF9201DFFF787F9E06A27
:1066F0002969884200D9286100EB800109EB8100FB
:10670000211DFFF7CBF9E06A2968C96A8842E3D303
:10671000C5F81C80E0E70CB1FEF76CFFAC694CB12A
:106720004FEA0806FFF7DEFE00B1EE61641EF9D104
:106730000020A861E86938B10849012738070860D6
:10674000BFF34F8FBFF36F8FFFF7D4F93846BDE823
:10675000F087000030000020F40E002004ED00E07F
:1067600010B586B0FEF7C8FC114C2068B8B1002007
:106770000390049005AA04A903A8FFF75DF9DDE9D9
:10678000032102208DE8070000230AA10B48059A87
:10679000FFF769FE606010B106B0012010BD502007
:1067A00080F31188BFF34F8FBFF36F8FFEE70000B8
:1067B0006C000020546D722053766300D15600089F
:1067C0002DE9FF411E46134602000A9D4FF00000CE
:1067D00016D0144C2768002F0FD0CDE90013029279
:1067E000062917DAFFF76AFE02284FF000030FD0E0
:1067F000002269462068FFF723FC04B0BDE8F08161
:10680000502080F31188BFF34F8FBFF36F8FFEE7E7
:106810002A46EEE70023324669463846FFF7C0FCB9
:10682000EBE700006C0000204FF04070E1EE100A32
:1068300070470000C8680008000000000000000069
:10684000000000000000000000020000180000002E
:106850000000000000000000BC680008000000000C
:10686000CC0200205C000000CC00002000020000F0
:10687000080000000000000000000000010002000D
:106880000400060008000A000C0010002000400070
:106890008000000101010103070100000804020457
:1068A00008010101000000000000000001020304D3
:1068B0000607080900000000010203046D79546115
:1068C000736B30320000000064656661756C74544F
:1068D00061736B0000000000920E493CB10AC93C94
:1068E0002BC3163D2EFB483D752B7B3D04A9963DE1
:1068F00080B6AF3D36BDC83D2FBCE13D73B2FA3D19
:1069000087CF093E8340163EB5AB223EA2102F3EF4
:10691000CF6E3B3EC2C5473E0115543E135C603E00
:106920007F9A6C3ECCCF783EC07D823E938E883E6F
:10693000229A8E3E32A0943E86A09A3EE59AA03ED0
:10694000128FA63ED47CAC3EEF63B23E2A44B83EE2
:10695000491DBE3E15EFC33E53B9C93ECA7BCF3E6B
:106960004136D53E80E8DA3E4F92E03E7533E63E52
:10697000BBCBEB3EEA5AF13ECBE0F63E275DFC3E58
:10698000E4E7003F3D9C033F824B063F9BF5083FF9
:106990006B9A0B3FDA390E3FCDD3103F2A68133F75
:1069A000D9F6153FC07F183FC6021B3FD17F1D3F60
:1069B000CBF61F3F9967223F25D2243F5636273F0B
:1069C0001594293F4AEB2B3FDE3B2E3FBB85303FE2
:1069D000C9C8323FF304353F233A373F4268393F55
:1069E0003B8F3B3FF9AE3D3F67C73F3F70D8413FCC
:1069F00001E2433F03E4453F65DE473F12D1493F93
:106A0000F8BB4B3F029F4D3F207A4F3F3D4D513FDA
:106A10004918533F31DB543FE595563F5348583FA3
:106A20006AF2593F1A945B3F532D5D3F05BE5E3FAE
:106A30002146603F97C5613F5A3C633F59AA643F76
:106A4000880F663FD86B673F3CBF683FA7096A3F26
:106A50000C4B6B3F5E836C3F93B26D3F9ED86E3F95
:106A600073F56F3F0809713F5213723F4714733F2C
:106A7000DD0B743F0BFA743FC6DE753F07BA763FF5
:106A8000C58B773FF853783F9812793F9DC7793F80
:106A900002737A3FBE147B3FCDAC7B3F283B7C3FEB
:106AA000C9BF7C3FAC3A7D3FCCAB7D3F23137E3FDB
:106AB000B0707E3F6DC47E3F580E7F3F6D4E7F3F6E
:106AC000AB847F3F0FB17F3F97D37F3F43EC7F3F46
:106AD00011FB7F3F0000803F11FB7F3F43EC7F3F76
:106AE00097D37F3F0FB17F3FAB847F3F6D4E7F3F9A
:106AF000580E7F3F6DC47E3FB0707E3F23137E3FB4
:106B0000CCAB7D3FAC3A7D3FC9BF7C3F283B7C3F4F
:106B1000CDAC7B3FBE147B3F02737A3F9DC7793F6C
:106B20009812793FF853783FC58B773F07BA763F85
:106B3000C6DE753F0BFA743FDD0B743F4714733F9D
:106B40005213723F0809713F73F56F3F9ED86E3F35
:106B500093B26D3F5E836C3F0C4B6B3FA7096A3F5E
:106B60003CBF683FD86B673F880F663F59AA643FB8
:106B70005A3C633F97C5613F2146603F05BE5E3F7B
:106B8000532D5D3F1A945B3F6AF2593F5348583F7B
:106B9000E595563F31DB543F4918533F3D4D513F3A
:106BA000207A4F3F029F4D3FF8BB4B3F12D1493FE8
:106BB00065DE473F03E4453F01E2433F70D8413F74
:106BC00067C73F3FF9AE3D3F3B8F3B3F4268393F90
:106BD000233A373FF304353FC9C8323FBB85303FC6
:106BE000DE3B2E3F4AEB2B3F1594293F5636273F7D
:106BF00025D2243F9967223FCBF61F3FD17F1D3F0F
:106C0000C6021B3FC07F183FD9F6153F2A68133FC5
:106C1000CDD3103FDA390E3F6B9A0B3F9BF5083FFF
:106C2000824B063F3D9C033FE4E7003F275DFC3E6F
:106C3000CBE0F63EEA5AF13EBBCBEB3E7533E63E87
:106C40004F92E03E80E8DA3E4136D53ECA7BCF3EE9
:106C500053B9C93E15EFC33E491DBE3E2A44B83E56
:106C6000EF63B23ED47CAC3E128FA63EE59AA03EC6
:106C700086A09A3E32A0943E229A8E3E938E883E03
:106C8000C07D823ECCCF783E7F9A6C3E135C603EE6
:106C90000115543EC2C5473ECF6E3B3EA2102F3E6B
:106CA000B5AB223E8340163E87CF093E73B2FA3D14
:106CB0002FBCE13D36BDC83D80B6AF3D04A9963D31
:106CC000752B7B3D2EFB483D2BC3163DB10AC93CBD
:106CD000920E493C00000000920E49BCB10AC9BCAA
:106CE0002BC316BD2EFB48BD752B7BBD04A996BDDD
:106CF00080B6AFBD36BDC8BD2FBCE1BD73B2FABD15
:106D000087CF09BE834016BEB5AB22BEA2102FBEF0
:106D1000CF6E3BBEC2C547BE011554BE135C60BEFC
:106D20007F9A6CBECCCF78BEC07D82BE938E88BE6B
:106D3000229A8EBE32A094BE86A09ABEE59AA0BECC
:106D4000128FA6BED47CACBEEF63B2BE2A44B8BEDE
:106D5000491DBEBE15EFC3BE53B9C9BECA7BCFBE67
:106D60004136D5BE80E8DABE4F92E0BE7533E6BE4E
:106D7000BBCBEBBEEA5AF1BECBE0F6BE275DFCBE54
:106D8000E4E700BF3D9C03BF824B06BF9BF508BFF5
:106D90006B9A0BBFDA390EBFCDD310BF2A6813BF71
:106DA000D9F615BFC07F18BFC6021BBFD17F1DBF5C
:106DB000CBF61FBF996722BF25D224BF563627BF07
:106DC000159429BF4AEB2BBFDE3B2EBFBB8530BFDE
:106DD000C9C832BFF30435BF233A37BF426839BF51
:106DE0003B8F3BBFF9AE3DBF67C73FBF70D841BFC8
:106DF00001E243BF03E445BF65DE47BF12D149BF8F
:106E0000F8BB4BBF029F4DBF207A4FBF3D4D51BFD6
:106E1000491853BF31DB54BFE59556BF534858BF9F
:106E20006AF259BF1A945BBF532D5DBF05BE5EBFAA
:106E3000214660BF97C561BF5A3C63BF59AA64BF72
:106E4000880F66BFD86B67BF3CBF68BFA7096ABF22
:106E50000C4B6BBF5E836CBF93B26DBF9ED86EBF91
:106E600073F56FBF080971BF521372BF471473BF28
:106E7000DD0B74BF0BFA74BFC6DE75BF07BA76BFF1
:106E8000C58B77BFF85378BF981279BF9DC779BF7C
:106E900002737ABFBE147BBFCDAC7BBF283B7CBFE7
:106EA000C9BF7CBFAC3A7DBFCCAB7DBF23137EBFD7
:106EB000B0707EBF6DC47EBF580E7FBF6D4E7FBF6A
:106EC000AB847FBF0FB17FBF97D37FBF43EC7FBF42
:106ED00011FB7FBF000080BF11FB7FBF43EC7FBF72
:106EE00097D37FBF0FB17FBFAB847FBF6D4E7FBF96
:106EF000580E7FBF6DC47EBFB0707EBF23137EBFB0
:106F0000CCAB7DBFAC3A7DBFC9BF7CBF283B7CBF4B
:106F1000CDAC7BBFBE147BBF02737ABF9DC779BF68
:106F2000981279BFF85378BFC58B77BF07BA76BF81
:106F3000C6DE75BF0BFA74BFDD0B74BF471473BF99
:106F4000521372BF080971BF73F56FBF9ED86EBF31
:106F500093B26DBF5E836CBF0C4B6BBFA7096ABF5A
:106F60003CBF68BFD86B67BF880F66BF59AA64BFB4
:106F70005A3C63BF97C561BF214660BF05BE5EBF77
:106F8000532D5DBF1A945BBF6AF259BF534858BF77
:106F9000E59556BF31DB54BF491853BF3D4D51BF36
:106FA000207A4FBF029F4DBFF8BB4BBF12D149BFE4
:106FB00065DE47BF03E445BF01E243BF70D841BF70
:106FC00067C73FBFF9AE3DBF3B8F3BBF426839BF8C
:106FD000233A37BFF30435BFC9C832BFBB8530BFC2
:106FE000DE3B2EBF4AEB2BBF159429BF563627BF79
:106FF00025D224BF996722BFCBF61FBFD17F1DBF0B
:10700000C6021BBFC07F18BFD9F615BF2A6813BFC1
:10701000CDD310BFDA390EBF6B9A0BBF9BF508BFFB
:10702000824B06BF3D9C03BFE4E700BF275DFCBE6B
:10703000CBE0F6BEEA5AF1BEBBCBEBBE7533E6BE83
:107040004F92E0BE80E8DABE4136D5BECA7BCFBEE5
:1070500053B9C9BE15EFC3BE491DBEBE2A44B8BE52
:10706000EF63B2BED47CACBE128FA6BEE59AA0BEC2
:1070700086A09ABE32A094BE229A8EBE938E88BEFF
:10708000C07D82BECCCF78BE7F9A6CBE135C60BEE2
:10709000011554BEC2C547BECF6E3BBEA2102FBE67
:1070A000B5AB22BE834016BE87CF09BE73B2FABD10
:1070B0002FBCE1BD36BDC8BD80B6AFBD04A996BD2D
:1070C000752B7BBD2EFB48BD2BC316BDB10AC9BCB9
:1070D000920E49BC00000080F870000800000020FB
:1070E000B000000014020008A8710008B0000020E1
:1070F000B02800003002000800000000000000007E
:10710000000000000000000000000000000000007F
:10711000000000000000000010000000010000005E
:10712000000000000024F400000000000000000047
:10713000000000000000000000000000000000004F
:10714000000000000000000000000000000000003F
:10715000000000000000000000000000000000002F
:10716000000000000000000000000000000000001F
:10717000000000000000000000000000000000000F
:1071800000000000000000000000000000000000FF
:1071900000000000000000000000000000000000EF
:0871A000AAAAAAAA000000003F
:04000005080001D915
:00000001FF
